:020000040800F2
:1000000058040020D500000865100008FD0D000808
:1000100000000000000000000000000000000000E0
:10002000000000000000000000000000AF10000809
:100030000000000000000000AD100008B110000832
:10004000E7000008E7000008E7000008E7000008F4
:10005000E7000008E7000008E7000008E7000008E4
:10006000E7000008E7000008E7000008E7000008D4
:10007000E7000008E700000800000000E7000008B3
:1000800000000000E7000008000000000000000081
:10009000E700000800000000E7000008E700000893
:1000A000E7000008E7000008E7000008E700000894
:1000B000E7000008E7000008E7000008E700000884
:1000C0000348854600F03CF80048004779140008D2
:1000D000580400200448804704480047FEE7FEE734
:1000E000FEE7FEE7FEE7FEE71D110008C10000087D
:1000F00030B50B46014600202022012409E00D46C0
:10010000D5409D4205D31D469540491B2546954047
:1001100040191546521E002DF1DC30BDD2B201E06F
:100120000270401C491EFBD270470022F6E710B552
:1001300013460A4604461946FFF7F0FF204610BD55
:10014000064C0125064E05E0E36807CC2B430C3C2A
:1001500098471034B442F7D3FFF7B6FF8C16000867
:10016000AC16000870B5044600F0CCF80546601CDB
:1001700000D0641C00F0C6F8401BA042FAD370BD4A
:10018000F8B500230124A2E027469F403A4070D0F2
:100190004D68022D01D0122D14D1DD08AD002D18AF
:1001A00000952D6A5E07AC46F50E0F26AE46AE40B2
:1001B0006546B543AC460E697546AE4065462E436E
:1001C000009D2E624D68012D05D0022D03D0112D0A
:1001D00001D0122D16D185680326AC465D00AE46CF
:1001E000AE406546B543AC46CE687546AE40654602
:1001F0002E43866046680D79BE43ED06ED0F9D40A7
:100200003543456006685F000325BD40AE46AE43FA
:100210000D79B446AE07B60FBE4065462E43066064
:10022000C6687546AE438D68BD403543C5604D68B0
:10023000ED004BD5294D6E6B26436E639E08284D0D
:10024000B6007519AC46AD689E07360F0F27B7404C
:10025000BD4305273F07B84201D1002715E0214FD4
:10026000B84201D1012710E01F4FB84202D1022746
:100270000BE02BE01D4FB84201D1032705E01C4FD6
:10028000B84201D1052700E00627B7402F43654655
:10029000AF60184D2E684F689643FF0300D5164394
:1002A0002E606E684F689643BF0300D516436E609C
:1002B000AE684F689643FF0200D51643AE60EE6805
:1002C0004F689643BF0200D51643EE605B1C0A6878
:1002D0001546DD4000D057E7F8BD00000010024091
:1002E000000001400004005000080050000C0050C5
:1002F000001C005000040140002A01D081617047B9
:1003000081627047014800687047000000000020CB
:1003100070B5024640325378202B1CD11378012B44
:1003200019D00123137024245470046825689D4358
:100330002560046825681E03B543256004682568A8
:100340000D4325600068016819430160202050704A
:100350000020107070BD022070BD70B502464032A2
:100360005378202B1BD11378012B18D00124147043
:100370002423537003681D68A5431D6005682B681E
:100380000F263602B3430902194329600068016849
:1003900021430160202050700020107070BD0220A9
:1003A00070BD000070B5040006D025464035687861
:1003B0000026002802D005E0012070BD2E702046E6
:1003C00000F05AF924206870206801684908490043
:1003D00001600F216068090688432168086121686F
:1003E0008A680120C00382438A60E1680129A1680C
:1003F00008D021229202114322689160E16802290B
:1004000002D005E00143F7E701212268C9025160EB
:1004100021684A680F4B1A434A602168CA688243C0
:10042000CA60616920690843A1690902084321681B
:10043000C860216AE0690843216808602068016893
:100440000122114301606664202068702663AE704B
:10045000002070BD00800002FFB50546044640350F
:10046000687881B0202878D12878012875D00120BB
:100470002870FFF747FF0746012200901923D10398
:10048000204600F019FD00283CD122206870102081
:10049000A8700026666403986062049860856663AD
:1004A000618D2F48FF2903D9FF22228500903BE070
:1004B000618D218500903DE02046029900F0E8FC26
:1004C00016E000F021FD00281CD12068406A616A16
:1004D0000870606A401C6062208D401E81B22185D8
:1004E000608D401E6085608D002801D000290CD0F1
:1004F000608D0A9900283A462046E2D100F044FD7A
:1005000000281CD0012005B0F0BD009700228021FA
:1005100020460A9B00F0D0FC0028F3D1608DFF2814
:1005200005D9FF222285009601231B06C4E7608DB2
:1005300020850096208D0123C2B25B06BCE72168AE
:100540002020C86121684A68064B1A404A606870DA
:10055000AE702E700020D6E7FFE70220D3E7000040
:100560000024008000E800FEFFB505460446403543
:10057000687881B0202878D12878012875D00120AA
:100580002870FFF7BFFE0746012200901923D10310
:10059000204600F091FC00283CD1212068701020FA
:1005A000A87000266664039860620498608566639C
:1005B000618D2F48FF2903D9FF22228500903BE05F
:1005C000618D218500903DE02046029900F060FC9D
:1005D00016E000F0FFFC00281CD1606A216800785A
:1005E0008862606A401C6062608D401E6085208D5C
:1005F000401E80B22085618D002901D000280CD0DA
:10060000608D0A9900283A462046E2D100F0BCFCF1
:1006100000281CD0012005B0F0BD009700228021E9
:1006200020460A9B00F048FC0028F3D1608DFF288B
:1006300005D9FF222285009601231B06C4E7608DA1
:1006400020850096208D0123C2B25B06BCE721689D
:100650002020C86121684A68064B1A404A606870C9
:10066000AE702E700020D6E7FFE70220D3E700002F
:100670000020008000E800FE10B586B0044614217A
:100680006846FFF752FD1149206888421BD1104C83
:10069000E16A02200143E162E16A01400320059121
:1006A000800200901220019001200290032003900C
:1006B0000620049069460748FFF762FDA06B012100
:1006C00089050843A06306B010BD00000058004033
:1006D000001002400004005002480168491C0160FB
:1006E000704700000000002010B508480024016891
:1006F000402211430160204600F00AF8002801D092
:10070000012401E000F01CF8204610BD002002404A
:1007100070B5054609487D210024C9000068FFF72F
:10072000E7FC00F053FB002801D0012404E0002284
:100730002946501E00F010F8204670BD040000202D
:100740000448416B012211434163816B0204114350
:10075000816370470010024010B500F085FC10BDA9
:10076000F8B50E4605007DD053480068C007C00F9D
:10077000B0420AD25048016849084900314301603B
:100780000068C007C00FB04271D128784B4C800779
:1007900005D5E068F0218843A9680843E06028781F
:1007A000C00752D06868022817D0032818D02168E3
:1007B000012818D08905002959DAE16889088900DB
:1007C0000143E160FFF79EFD69680746022912D0E8
:1007D00003291CD0012926D033E021688903EAE7E8
:1007E00021688901E7E74907E5E7FFF78BFDC11BB2
:1007F0003348814223D8E0680007800F0228F4D1F3
:1008000023E0FFF77FFDC11B2D48814217D8E06828
:100810000007800F0328F4D117E0FFF773FDC11B19
:10082000274881420BD8E0680007800F0128F4D1E7
:100830000BE0FFF767FDC11B2148814201D903206E
:10084000F8BDE0680007800FF3D11B480168C907B5
:10085000C90FB1420DD9016849084900314301600F
:10086000006800E003E0C007C00FB04201D00120E3
:10087000F8BD2878400706D5E068072109028843BB
:10088000E9680843E0602878000707D5E068072199
:10089000C90288432969C9000843E06000F016F8DE
:1008A000E168084A0906090F515CC840064908601A
:1008B0000020FFF72DFFF8BD00200240001002408D
:1008C00088130000701600080400002010B5184AB4
:1008D000D1680C20084004280BD0082810D00C2820
:1008E00010D050680004410F0120C003491C88400B
:1008F00010BD1068C00601D50E4810BD0E4810BDD1
:100900000E4810BD88020E4B000F185C0902D36818
:10091000890F491CDB0301D5084A05E01268D2069D
:1009200001D5044A00E0044A5043FFF7E1FB10BD43
:100930000010024000093D000024F40000127A007B
:1009400080160008FEB505007ED0FE4CE7680C203E
:10095000E66807400120000406402878C00747D019
:10096000082F05D00C2F0AD101200004864206D1A1
:10097000206880033CD568680028E5D038E0012075
:1009800069680004814203D121680143216011E0BC
:10099000052301221B0492049942216802D11143CC
:1009A0002160F1E7814321602168014000912068C6
:1009B00090432060686800280DD0FFF7A3FC0090EA
:1009C00005E0FFF79FFC0099401A64287AD8206858
:1009D0008003F6D50CE0FFF795FC009005E0FFF7EB
:1009E00091FC0099401A6428F0D820688003F6D45E
:1009F0002878800755D50923E868042F0DD00C2FDF
:100A000001D1002E09D000283BD021689943014331
:100A10002160FFF777FC064627E02168490701D5EA
:100A2000002891D061681F22120291432A691202A4
:100A3000114361602168994301432160FFF746FF3C
:100A4000E16809060A0F00E0BBE1BF49895CC840C4
:100A5000BE4908600020FFF75BFE002872D120E04D
:100A6000FFF750FC801B0228B0D820684007F7D55C
:100A700060681F21090288432969090208436060F0
:100A80000FE02068400840002060FFF73BFC06466E
:100A900004E0FFF737FC801B022897D82068400746
:100AA000F7D42878C0065FD5002F0CD0E86900285D
:100AB00049D02068FF21013108432060FFF722FC64
:100AC00006462DE0E4E02068800502D5E8690028AC
:100AD000A7D06068072149038843696A08436060BA
:100AE0006068298C0002000A090608436060686A91
:100AF000410B0120C003491C8840E16809060A0F28
:100B00009149895CC840914908600020FFF700FEC8
:100B1000002817D128E0FFF7F5FB801B0228A3D897
:100B200020688005F7D56068072149038843696A12
:100B3000084360606068298C0002000A09060843C7
:100B4000606011E023E12168FF20013081432160D2
:100B5000FFF7D8FB064604E0FFF7D4FB801B022812
:100B60009BD820688005F7D42878794E000724D5D3
:100B700068690028306910D0012108433061FFF70F
:100B8000C1FB009005E0FFF7BDFB0099401A022869
:100B90007ED830698007F6D50FE04008400030610C
:100BA000FFF7B0FB009005E0FFF7ACFB0099401A9F
:100BB00002286DD830698007F6D42878400764D5BC
:100BC00000200290A06BC00006D4A06B0121090791
:100BD0000843A063012002905E480168C90511D452
:100BE0000168821511430160FFF78CFB009005E05E
:100BF000FFF788FB0099401A642849D855480068D7
:100C0000C005F5D5FF20AA680130824203D13169C1
:100C10000143316111E001218902002A07D0052337
:100C20001B029A4203D132690A433261EFE732690B
:100C300082433261306988433061A86800280ED051
:100C4000FFF760FB009006E0FFF75CFB0099411A9C
:100C5000414881421CD830698005F5D50DE0FFF789
:100C600051FB009006E0FFF74DFB0099411A3A480E
:100C700081420DD830698005F5D40298002804D04F
:100C8000A16B012000078143A1632878800600E062
:100C90007CE02ED53148A9694314002916D0A268FA
:100CA00001210A43A260626B0A436263016A19432D
:100CB0000162FFF727FB064604E0FFF723FB801BDA
:100CC000022863D8A0688007F7D512E0A168490818
:100CD0004900A160016A99430162FFF713FB0646D0
:100CE00004E0FFF70FFB801B02284FD8A0688007A5
:100CF000F7D4A86A002866D00C2F4DD001263606FE
:100D00000228206805D0B0432060FFF7FBFA0546B3
:100D10003EE0B0432060FFF7F5FA074604E0FFF736
:100D2000F1FAC01B022831D820688001F7D4296B62
:100D3000E86AE2680843696BFD231B049A43114388
:100D400008430DE000100240701600080400002067
:100D50004010024000700040881300000000014075
:100D6000E060206830432060FFF7CCFA054604E0DD
:100D7000FFF7C8FA401B022808D820688001F7D581
:100D800021E0FFF7BFFA401B022801D90320FEBD76
:100D900020688001F5D416E00128F8D0E068012130
:100DA0000904EA6A014091420BD10F2189042A6BA0
:100DB0000140914205D1032189050840696B8842B1
:100DC00001D00120FEBD0020FEBD0000094910B584
:100DD000401E884201D9012010BD074C60610321EB
:100DE000081F00F041F90020A061072020610020C9
:100DF00010BD0000FFFFFF0000E000E0FEE701681B
:100E00008A69D243920701D400228A62006881690C
:100E1000C943C90703D08169012211438161704729
:100E2000F7B5044600680E468069C043C0062BD45F
:100E300020272546403520688069C043800612D5AA
:100E4000701CF8D0FFF75EFA0299401AB04201D840
:100E5000002EF0D1606C384360646F700020A87081
:100E600028700120FEBD21681020C8612068C7617C
:100E70002046FFF7C4FF20684168044A11404160E2
:100E8000606C04210843E7E70020FEBD00E800FE97
:100E9000F0B50668059C7568064F600D38438543BC
:100EA0008805800D110408431843204305437560ED
:100EB000F0BD0000FF63FF03F8B51D4617460E4660
:100EC000044609E0681C07D0FFF71CFA0699401A8F
:100ED000A8420BD8002D09D020688169304688438C
:100EE0000FD00020B842EDD00020F8BD616C20206A
:100EF00001436164403460700020A07020700120C4
:100F0000F8BD0120EEE70000F7B5002720260546D2
:100F10000446403528E02046029A0199FFF780FFF9
:100F2000002801D00120FEBD20688069C0438006F2
:100F300011D420688169C943490702D4218D002951
:100F400017D1C661206841680E4A1140416067644C
:100F50006E70AF7013E0FFF7D5F90299411A01984E
:100F6000814208D8002806D020688069C043400725
:100F7000D1D40020FEBD606C304360646E702F7071
:100F8000D0E7000000E800FE70B516460D460446A6
:100F90000FE0324629462046FFF742FF002801D0E5
:100FA000012070BDFFF7AEF9801BA84208D8002DC4
:100FB00006D020688069C0438006EAD4002070BD56
:100FC000616C202001436164403460700020A07097
:100FD0002070E5E770B516460D46044611E032462E
:100FE00029462046FFF71CFF002801D0012070BDD4
:100FF000681C06D0FFF786F9801BA84208D8002D90
:1010000006D020688069C0438007E8D4002070BD06
:10101000616C202001436164403460700020A07046
:101020002070E3E710B50D480B4901600C494160A1
:10103000002181600161416181610122C161C26061
:101040000162FFF7AFF900210448FFF761F90021C1
:101050000248FFF782F910BD005800400800002048
:10106000FFC71060704700008307FF22DB0E9A4025
:101070008907090E994000280BDA0007000F08388D
:10108000830808489B001818C36993430B43C36146
:101090007047830804489B001B1818689043084356
:1010A0001860704700ED00E000E400E07047704712
:1010B00010B5FFF711FB10BD10B594B0382168468C
:1010C000FFF733F814210EA8FFF72FF81248016834
:1010D0000322D2029143C2148918016002200090B9
:1010E00001210A90039140040C900001102100247A
:1010F0000D900B9404916846FFF724FC0F200E908E
:1011000003200F9010941194012112940EA8FFF760
:1011100027FB14B010BD00000070004010480168AB
:10112000821511430160C1680E4A1140C160016817
:101130000D4A1140016081684908490081600168D9
:101140000122920491430160C168FD22120491437F
:10115000C160002101610549C0038860704700003B
:10116000001002400C40FF88F6FFF6FE00ED00E0A4
:101170000FB410B504A9074B02AA039800F01CF89D
:10118000044602A9002000F0BFF8204610BC08BCAD
:1011900004B018470913000802E008C8121F08C16C
:1011A000002AFAD170477047002001E001C1121FE8
:1011B000002AFBD170470000FFB58DB00446002522
:1011C00006E025280AD0109A0F999047641C6D1CE0
:1011D00020780028F5D1284611B0F0BD0027012164
:1011E000484A009700E00743641C23780846203BE8
:1011F00098401042F7D120782E2817D104200743B9
:101200006078641C2A280CD10E98641C02C80091D6
:101210000E900BE000990A22514330394018641CAB
:1012200000902078014630390929F3D92078002828
:10123000D1D0642808D0692806D075281ED0109A0D
:101240000F9990476D1C5BE00A200E99019001C92F
:101250000E91002802DA40422D2102E0390504D522
:101260002B216A461172012103E0F90704D02021E5
:10127000F7E70BAE0B910DE00021FAE70A200E997B
:10128000019001C90E91F7E70199FEF731FF303166
:10129000761E31700028F7D103A8801B2030019002
:1012A000780701D5009801E001200090019988425B
:1012B00001DD401A00E000200027009006E002A8AF
:1012C000109AC05D0F9990476D1C7F1C0B98874248
:1012D000F5DB04E0109A30200F9990476D1C0099BF
:1012E000481E00900029F5DC05E03078109A761C45
:1012F0000F9990476D1C0199481E01900029F4DC5C
:10130000641C65E7092801000A68531C0B60107013
:10131000704701090A2200075143000F0818C0B2A4
:10132000704710B50121002000F08AF810BD0000C0
:1013300070B50446C0060C4DC20F10212846FEF7BA
:10134000DBFFA006C20F20212846FEF7D5FF60066E
:10135000C20F40212846FEF7CFFFE2098021284630
:10136000FEF7CAFF70BD00000004005010B51C4C11
:10137000012211022046FEF7BFFF1420FEF7F2FE05
:10138000002201212046FEF7B7FF0022042120465B
:10139000FEF7B2FF3020FFF7CBFF00F023F800F09C
:1013A00021F800F01FF82020FFF7C2FF00F01AF824
:1013B00000F018F81020FFF7BBFF00F013F8002032
:1013C000FFF7B6FF00F00EF8C020FFF7B1FF00F006
:1013D00009F82821002000F033F8FFF7A2FF10BD24
:1013E0000004005010B50120FEF7BCFE074C01229E
:1013F00004212046FEF780FF0120FEF7B3FE002205
:1014000004212046FEF778FF10BD000000040050C4
:1014100070B50546002403E0012000F011F8641CBB
:10142000295D0029F8D170BD10B5012806D0C02073
:101430004018C1B2002000F003F810BD8020F7E78B
:1014400010B50C46024601210748FEF755FF20095A
:101450000001FFF76DFFFFF7C5FF2007000EFFF744
:1014600067FFFFF7BFFF10BD0004005010B5014635
:101470000120FFF7E5FF10BD8AB0FFF735F9FFF750
:101480001BFE142105A8FEF750FE4E48C26A022139
:101490000A43C262C06AFF2408404B4DF8340490EE
:1014A000002221462846FEF727FF00210120079150
:1014B00008910690059405A92846FEF761FEFFF7FE
:1014C000B1FDFFF753FF7D2604AC05ADF600FFF735
:1014D00028FF06AB07AA08A909A80095019400F007
:1014E0007BF8002868D000210120FFF79DFF6846A7
:1014F000027E36A101A8FFF73BFE01A8FFF788FF97
:101500002F20FFF7B3FF6846027D30A101A8FFF747
:101510002FFE01A8FFF77CFF2F20FFF7A7FF6846EB
:10152000007C0A2802D23020FFF7A0FF6846027C28
:1015300026A101A8FFF71CFE01A8FFF769FF2020E4
:10154000FFF794FF08A800790A2802D23020FFF79D
:101550008DFF08A802791DA101A8FFF709FE01A8C7
:10156000FFF756FF3A20FFF781FF08A800780A2806
:1015700002D23020FFF77AFF08A8027813A101A851
:10158000FFF7F6FD01A8FFF743FF3A20FFF76EFFD4
:101590006846007F0A2802D23020FFF767FF6846BE
:1015A000027F0AA101A8FFF7E3FD01A8FFF730FFC2
:1015B0003046FEF7D7FD8AE700210120FFF734FF10
:1015C00003A0F3E70010024000040050256400006F
:1015D0004572726F72202100FFB583B00D46002066
:1015E000694608717D271C461646FF00012301AAA3
:1015F000D0211E480097FEF7B7FF012833D0012005
:10160000FEF7B0FD072301AAD02118480097FEF786
:1016100023FF012827D0684600794006400EFFF7D7
:1016200078FE307068464079FFF773FE2870684690
:1016300080798006800EFFF76CFE0399087068467B
:10164000007AFFF766FE20706846407AFFF761FE79
:101650000C9908706846807AFFF75BFE0D99087058
:10166000012007B0F0BD0020FBE7000008000020CB
:101670000000000000000000010203040607080942
:10168000030406080C10182030000000AC160008F7
:10169000000000200800000098110008B41600089F
:1016A0000800002050040000A811000800000000FD
:0416B0000000200016
:04000005080000C12E
:00000001FF
