:020000040800F2
:10000000180B0020D5000008790D0008230D00080A
:1000100000000000000000000000000000000000E0
:10002000000000000000000000000000C30D0008F8
:100030000000000000000000C10D0008C50D000810
:10004000E7000008E7000008E7000008E7000008F4
:10005000E7000008E7000008E7000008E7000008E4
:10006000E7000008E7000008E7000008E7000008D4
:10007000E7000008E700000800000000850E000807
:1000800000000000E7000008000000000000000081
:10009000E700000800000000E7000008E700000893
:1000A000E7000008E7000008E7000008E700000894
:1000B000E7000008E7000008E7000008E700000884
:1000C0000348854600F056F800480047D90F00085D
:1000D000180B00200448804704480047FEE7FEE76D
:1000E000FEE7FEE7FEE7FEE7310E0008C10000086C
:1000F00030B50B46014600202022012409E00D46C0
:10010000D5409D4205D31D469540491B2546954047
:1001100040191546521E002DF1DC30BD03460B433D
:100120009B0703D009E008C9121F08C0042AFAD2AD
:1001300003E00B780370401C491C521EF9D2704733
:10014000D2B201E00270401C491EFBD2704700226F
:10015000F6E710B513460A4604461946FFF7F0FFC6
:10016000204610BD421C0178401C0029FBD1801A9A
:1001700070470000064C0125064E05E0E36807CCF9
:100180002B430C3C98471034B442F7D3FFF79CFF45
:10019000201200084012000870B58C180578401C29
:1001A0006B075B0F01D10378401C2A1106D102783E
:1001B000401C03E006780E70401C491C5B1EF9D100
:1001C0002B0705D40023521E0DD40B70491CFAE7EF
:1001D0000378401CCB1A921C03E01D780D70491C5B
:1001E0005B1C521EF9D5A142D8D3002070BD70B55A
:1001F000044600F0CDF80546601C00D0641C00F0F9
:10020000C7F8401BA042FAD370BD0000F8B5002328
:100210000124A2E027469F403A4070D04D68022D4D
:1002200001D0122D14D1DD08AD002D1800952D6AD6
:100230005E07AC46F50E0F26AE46AE406546B543AA
:10024000AC460E697546AE4065462E43009D2E6253
:100250004D68012D05D0022D03D0112D01D0122D96
:1002600016D185680326AC465D00AE46AE406546B5
:10027000B543AC46CE687546AE4065462E438660B3
:1002800046680D79BE43ED06ED0F9D403543456050
:1002900006685F000325BD40AE46AE430D79B44607
:1002A000AE07B60FBE4065462E430660C66875466B
:1002B000AE438D68BD403543C5604D68ED004BD5FC
:1002C000294D6E6B26436E639E08284DB600751946
:1002D000AC46AD689E07360F0F27B740BD430527D4
:1002E0003F07B84201D1002715E0214FB84201D1A4
:1002F000012710E01F4FB84202D102270BE02BE08C
:100300001D4FB84201D1032705E01C4FB84201D16F
:10031000052700E00627B7402F436546AF60184D1C
:100320002E684F689643FF0300D516432E606E6813
:100330004F689643BF0300D516436E60AE684F68A2
:100340009643FF0200D51643AE60EE684F689643B1
:10035000BF0200D51643EE605B1C0A681546DD40FF
:1003600000D057E7F8BD0000001002400000014037
:100370000004005000080050000C0050001C005009
:1003800000040140002A01D08161704781627047FA
:1003900001480068704700000C0600200248016810
:1003A000491C0160704700000C06002010B5084889
:1003B00000240168402211430160204600F00AF841
:1003C000002801D0012401E000F01CF8204610BDF7
:1003D0000020024070B5054609487D210024C9006F
:1003E0000068FFF785FE00F05DFB002801D00124C6
:1003F00004E000222946501E00F01AF8204670BD85
:10040000100600200448416B012211434163816BB7
:10041000020411438163704700100240C106C90EF7
:1004200001208840014908607047000000E100E0B9
:1004300010B500F0A3FC10BDF8B50E4605007DD048
:1004400053480068C007C00FB0420AD25048016844
:1004500049084900314301600068C007C00FB0423D
:1004600071D128784B4C800705D5E068F02188438E
:10047000A9680843E0602878C00752D0686802285D
:1004800017D0032818D02168012818D08905002921
:1004900059DAE168890889000143E160FFF778FFD4
:1004A00069680746022912D003291CD0012926D0E9
:1004B00033E021688903EAE721688901E7E7490712
:1004C000E5E7FFF765FFC11B3348814223D8E068A9
:1004D0000007800F0228F4D123E0FFF759FFC11B6A
:1004E0002D48814217D8E0680007800F0328F4D117
:1004F00017E0FFF74DFFC11B274881420BD8E0688A
:100500000007800F0128F4D10BE0FFF741FFC11B6A
:100510002148814201D90320F8BDE0680007800F1F
:10052000F3D11B480168C907C90FB1420DD9016851
:100530004908490031430160006800E003E0C0075A
:10054000C00FB04201D00120F8BD2878400706D581
:10055000E068072109028843E9680843E0602878D9
:10056000000707D5E0680721C90288432969C90047
:100570000843E06000F016F8E168084A0906090F30
:10058000515CC840064908600020FFF723FFF8BD12
:1005900000200240001002408813000004120008EE
:1005A0001006002010B5184AD1680C200840042815
:1005B0000BD0082810D00C2810D050680004410F30
:1005C0000120C003491C884010BD1068C00601D539
:1005D0000E4810BD0E4810BD0E4810BD88020E4BCF
:1005E000000F185C0902D368890F491CDB0301D591
:1005F000084A05E01268D20601D5044A00E0044A20
:100600005043FFF775FD10BD0010024000093D008A
:100610000024F40000127A0014120008FEB5050050
:100620007ED0FE4CE7680C20E668074001200004FD
:1006300006402878C00747D0082F05D00C2F0AD1D4
:1006400001200004864206D1206880033CD56868FA
:100650000028E5D038E0012069680004814203D118
:1006600021680143216011E0052301221B0492044B
:100670009942216802D111432160F1E78143216051
:10068000216801400091206890432060686800283C
:100690000DD0FFF77DFE009005E0FFF779FE009991
:1006A000401A64287AD820688003F6D50CE0FFF75A
:1006B0006FFE009005E0FFF76BFE0099401A64287A
:1006C000F0D820688003F6D42878800755D5092310
:1006D000E868042F0DD00C2F01D1002E09D000287E
:1006E0003BD02168994301432160FFF751FE064644
:1006F00027E02168490701D5002891D061681F22B1
:10070000120291432A6912021143616021689943E0
:1007100001432160FFF746FFE16809060A0F00E088
:10072000BBE1BF49895CC840BE4908600020FFF7B3
:1007300051FE002872D120E0FFF72AFE801B02281C
:10074000B0D820684007F7D560681F2109028843A8
:1007500029690902084360600FE0206840084000F2
:100760002060FFF715FE064604E0FFF711FE801B30
:10077000022897D820684007F7D42878C0065FD5AC
:10078000002F0CD0E869002849D02068FF210131F2
:1007900008432060FFF7FCFD06462DE0E4E02068FA
:1007A000800502D5E8690028A7D0606807214903C1
:1007B0008843696A084360606068298C0002000A07
:1007C000090608436060686A410B0120C003491CA8
:1007D0008840E16809060A0F9149895CC84091493F
:1007E00008600020FFF7F6FD002817D128E0FFF78A
:1007F000CFFD801B0228A3D820688005F7D560684C
:10080000072149038843696A084360606068298C4E
:100810000002000A09060843606011E023E1216834
:10082000FF20013081432160FFF7B2FD064604E05E
:10083000FFF7AEFD801B02289BD820688005F7D407
:100840002878794E000724D568690028306910D0CF
:10085000012108433061FFF79BFD009005E0FFF7A1
:1008600097FD0099401A02287ED830698007F6D596
:100870000FE0400840003061FFF78AFD009005E07E
:10088000FFF786FD0099401A02286DD8306980076D
:10089000F6D42878400764D500200290A06BC000F1
:1008A00006D4A06B012109070843A0630120029030
:1008B0005E480168C90511D40168821511430160C1
:1008C000FFF766FD009005E0FFF762FD0099401A12
:1008D000642849D855480068C005F5D5FF20AA68A6
:1008E0000130824203D131690143316111E00121BC
:1008F0008902002A07D005231B029A4203D13269DC
:100900000A433261EFE732698243326130698843DA
:100910003061A86800280ED0FFF73AFD009006E08D
:10092000FFF736FD0099411A414881421CD83069D1
:100930008005F5D50DE0FFF72BFD009006E0FFF7F1
:1009400027FD0099411A3A4881420DD83069800547
:10095000F5D40298002804D0A16B01200007814340
:10096000A1632878800600E07CE02ED53148A96993
:100970004314002916D0A26801210A43A260626BC9
:100980000A436263016A19430162FFF701FD0646EB
:1009900004E0FFF7FDFC801B022863D8A0688007F5
:1009A000F7D512E0A16849084900A160016A99439E
:1009B0000162FFF7EDFC064604E0FFF7E9FC801B4F
:1009C00002284FD8A0688007F7D4A86A002866D00C
:1009D0000C2F4DD0012636060228206805D0B043E2
:1009E0002060FFF7D5FC05463EE0B0432060FFF7EE
:1009F000CFFC074604E0FFF7CBFCC01B022831D830
:100A000020688001F7D4296BE86AE2680843696BC3
:100A1000FD231B049A43114308430DE000100240DC
:100A20000412000810060020401002400070004030
:100A30008813000000000140E0602068304320601F
:100A4000FFF7A6FC054604E0FFF7A2FC401B0228C6
:100A500008D820688001F7D521E0FFF799FC401BFA
:100A6000022801D90320FEBD20688001F5D416E0DC
:100A70000128F8D0E06801210904EA6A01409142A6
:100A80000BD10F2189042A6B0140914205D103212A
:100A900089050840696B884201D00120FEBD002015
:100AA000FEBD0000094910B5401E884201D9012051
:100AB00010BD074C60610321081F00F05FF90020A2
:100AC000A06107202061002010BD0000FFFFFF0093
:100AD00000E000E0F0B502462032137E012B15D075
:100AE000012717760223537605686C68AB68702679
:100AF000B4430E68496826438024A34319436E60BB
:100B000000688160577600201076F0BD0220F0BDAD
:100B10000268D36801210B43D360006882685207E2
:100B2000520F062A02D002680A4302600020704772
:100B3000704770B50446006801690025C9438907FC
:100B4000002915DBC168C943890711D4E91E016179
:100B500001202076206880698007204602D0FFF7B8
:100B6000E7FF04E000F0A0F8204600F0CFF825767B
:100B700020680169C943490717D4C168C9434907B7
:100B800013D40421C94301610220207620688069C2
:100B90008005800F204602D0FFF7CAFF04E000F076
:100BA00083F8204600F0B2F8257620680169C94331
:100BB000090716D4C168C943090712D40821C943DB
:100BC0000161042020762068C0698007204602D099
:100BD000FFF7AEFF04E000F067F8204600F096F85B
:100BE000257620680169C943C90617D4C168C9437D
:100BF000C90613D41021C94301610820207620685A
:100C0000C0698005800F204602D0FFF791FF04E005
:100C100000F04AF8204600F079F82576206801694E
:100C2000C943C90708D1C168C943C90704D1891E8E
:100C30000161204600F06CF820680169C94349064B
:100C400009D4C168C943490605D44021C94301619B
:100C5000204600F065F870BD70B504462034237E50
:100C6000012B0CD00125257602236376002A08D0BB
:100C7000042A0AD0082A0CD00C2A11D10DE0022037
:100C800070BD006800F032F90AE0006800F046F933
:100C900006E0006800F05BF902E0006800F072F91D
:100CA00065760020207670BD704770B5040005D0D1
:100CB00025462035687E002802D006E0012070BD60
:100CC00000202876204600F00BF802206876211DCF
:100CD000206800F0DFF801206876002070BD000079
:100CE00010B500680121890788420CD10648816B44
:100CF000012211438163002211460F20FFF798FB68
:100D00000F20FFF78BFB10BD001002407047000062
:100D100010B5024800F0EEF910BD000001000020FF
:100D20007047FEE710B586B00024059401211148F4
:100D30000494009401940294890703940160202193
:100D4000846041607D210461C9004461C160FFF796
:100D5000ACFF049404A907480594FFF7BBFE009478
:100D6000019402940022694602480394FFF774FF3D
:100D700006B010BD14060020704700008307FF2254
:100D8000DB0E9A408907090E994000280BDA00070C
:100D9000000F0838830808489B001818C36993435C
:100DA0000B43C3617047830804489B001B181868F5
:100DB000904308431860704700ED00E000E400E055
:100DC0007047704710B5FFF7E9FA10BD10B594B041
:100DD00038216846FFF7BBF914210EA8FFF7B7F9D1
:100DE000124801680322D2029143C214891801609B
:100DF0000220009001210A90039140040C90000110
:100E0000102100240D900B9404916846FFF706FC16
:100E10000F200E9003200F90109411940121129432
:100E20000EA8FFF709FB14B010BD000000700040D1
:100E300010480168821511430160C1680E4A1140D3
:100E4000C16001680D4A114001608168490849008C
:100E5000816001680122920491430160C168FD2212
:100E600012049143C160002101610549C0038860FB
:100E700070470000001002400C40FF88F6FFF6FEAD
:100E800000ED00E010B50248FFF753FE10BD000072
:100E90001406002070B5026801239B07114C124D07
:100EA000984203D0A04201D0A84203D17026B24399
:100EB0004E683243984203D0A04201D0A84204D1E8
:100EC00003231B029A43CB681A4380239A430B697E
:100ED0001A4302608A68C262096881620121416125
:100EE00070BD0000000801400014014030B5026AE6
:100EF000520852000262026A456883697024A34363
:100F00009C080B68A40023430224A2438C6845601C
:100F10001443836149684163046230BD30B5026A9D
:100F200010239A430262036A45688269732424028B
:100F3000A2430C6824021443202293438A6845602C
:100F400012011A43846149688163026230BD30B581
:100F5000026AFF2301339A430262026A4568C36949
:100F60007024A3439C080B68A4002343012464025B
:100F7000A2438C68456024021443C3614968C1637D
:100F8000046230BD30B5026A01231B039A4302623A
:100F9000036A4568C26973242402A2430C682402D0
:100FA00014430122520393438A68456012031A4393
:100FB000C46149680164026230BD02E008C8121FC2
:100FC00008C1002AFAD170477047002001E001C132
:100FD000121F002AFBD1704786B0FFF7E7F9FFF731
:100FE000F5FE14216846FFF7B2F82048C26A0421D2
:100FF0000A43C262C06A1E4C0840059000227C2150
:101000002046FFF7BFF97C200090002101200291CB
:101010000391019069462046FFF7F8F8FFF782FE3A
:10102000012240212046FFF7ADF900221021204681
:10103000FFF7A8F9002220212046FFF7A3F900229C
:1010400004212046FFF79EF9002208212046FFF7E1
:1010500099F900F015F8FF2000F066F80548FFF751
:1010600057FD05A000F086F8FBE7000000100240E5
:101070000008005014060020452D54454348000048
:1010800010B5064C012204212046FFF77BF900220F
:1010900004212046FFF776F910BD0000000800503B
:1010A000F8B50C46054608212046FFF750F8002207
:1010B000012600238021D140E85C084001D0304661
:1010C0009840A75C5B1C3843DBB2A054082BF3D3D9
:1010D000521CD2B2082AECD3F8BD00001CB56946F8
:1010E000FFF7DEFF082269460148FFF717F81CBD2D
:1010F0000100002070B50B4C05462078002801D176
:10110000FFF7BEFF2078285CC043C0B200F00CF8A7
:1011100000F068F82078082801D2401C00E0002088
:10112000207070BD0000002070B5114E05460022F1
:1011300040213046FFF726F907242846E040C20741
:10114000D20F10213046FFF71DF901222021304631
:10115000FFF718F9002220213046FFF713F9641E2B
:10116000EBD5012240213046FFF70CF970BD00009D
:1011700000080050FEB5082706460024174D0FE072
:1011800017490020325D06235A4312188A5CEA553B
:101190007F1C401CC0B2FFB20628F3D3641CE4B22B
:1011A0003046FEF7DFFFA042EAD800240CE0291900
:1011B00008226846FEF7B2FF6846FFF78FFF6420FB
:1011C000FFF715F8641CE4B23046FEF7CBFF0621AA
:1011D00048430830A042EAD8FEBD00005006002077
:1011E0000900002010B5064C012208212046FFF717
:1011F000C9F8002208212046FFF7C4F810BD0000FE
:10120000000800500000000000000000010203047C
:1012100006070809030406080C1018203000000017
:101220004012000800000020140600009801000889
:10123000C81600081406002004050000CA0F0008A4
:101240000110167CA28AA27C167CD6F6D67C1638B3
:101250007C3E7C3816183C7E3C18160C6CFE6C0CE0
:101260000619183A7E3A18160C12526C7076609471
:101270009E946016067E50ACFC2654386C3854158B
:10128000FE7C38102510387CFE1A284E22281AFAC7
:101290000211166090FE80FE1644B2AA9A441A0605
:1012A00001191E156DFF6D28162060FE60201608BE
:1012B0000CFE0C085B10103C1310101B1E020111D9
:1012C0001B107C0211160C3CFC3C0C86C0F0FCF0A0
:1012D000C01B60FA7D2BE0C0031B247E0211252475
:1012E000D4564816C6C81026C63E6C926A040A1F19
:1012F00029EB428233827C195F194E1966196011FD
:101300001A0783190C190119C1290C160408102099
:10131000401D7C8A92A22C2442FE0216468A92929A
:101320006216449292926C16182848FE081AF40C21
:10133000128C163C5292920C1E808E90A0C06C298A
:101340001E2660929294784336362A37061C10285F
:1013500044792A2401197E144428101E40809A9052
:10136000608F14BAAA78167E8888887E3AFE3C166A
:101370007C828282441AFE063A7C1212821EFE9001
:10138000909080181492925E1AFEA11AFE421AFEE4
:101390004E1E0C020202FC12295B1AFE0C12022ED7
:1013A000FE402040FE06192429481942193C2966AE
:1013B0002C8A847A0C1398661A6454124C16808016
:1013C000FE80803AFC421EF8040204F80C1A3C0C21
:1013D00016C6281028C616E0100E10E0358E92A210
:1013E000C2198B2119531B0804781A827D3F2040B3
:1013F00080402001012133C0E016042A2A2A1E164B
:10140000FE2222221C1A1C063A040612FE1A1C187E
:10141000121025107E909016182525253E45FE2099
:10142000201E235E021D020121BE5F440814221A01
:10143000FE121C3E20181F3A3E242942121C7A3FFD
:1014400054123F1D221E22204E1954120425207CC6
:101450002224253C02043E1A38C01238163C060CE1
:10146000063C25360808361B39050B1125262A2A85
:10147000322B107CC02142EE1582827C1019BF1ADB
:10148000803C1564C4643C1678858784481CBC0283
:10149000048A19AE13AA901E04AAAAAA1E063A2A02
:1014A000061AAAD81604EAAAEA1E1638454744289E
:1014B0001A1C1E1A10063A2A061AAADE112B803EA2
:1014C000603B80BE061A3EC6160E9424940E1D1E66
:1014D000F4A4F4CC195412A2162C2A3E2A1A167E11
:1014E00090FE92921D1CA2A29C6C1BA222061B9C29
:1014F000A2DD111C3C82847E2BBC82CC1D3985066A
:10150000BC0C1B424206153C8202BC17010E161A87
:101510001C2016127C929246167E86BAC2FC164495
:10152000281028441602117E90402B042AAE21294F
:101530007E2B1C225A2B3C024E1D5E90508E0624A0
:1015400088449E1A10B4127A25728A8A72280D0C69
:1015500012B202047C82BAD2AA7C200112381EE8A0
:101560001032560A061B2C54481C0CBE0C302A287C
:10157000031B2810032B2288022B55AA022BDD7790
:1015800002311AFF231B101006111C0E14A4EA5B73
:101590000E94061B140E5A2EAA827C50DF241904C6
:1015A00019061D505F407F0634D010F025182466C0
:1015B000241E94543E549442521F1AF00A4B1010A9
:1015C000062C1F101038390C4901190C1116046A29
:1015D000AA6A9E1E0E54A4548E2E14D050501E7F04
:1015E000405F505054190C1960190C196A1ADF0C1D
:1015F00049012ADF0C1116BA444444BA2C44AA9A71
:10160000D215FE92827C1E3EAAAAAA22063A2A0679
:1016100034AA2A2242E03422BEA24AA2062B3EA2CB
:10162000DE29AE2119903AFF013A0F013142EE1442
:10163000A2BE223AF00111253C42C2BC257F525283
:101640002C2B3CC20C25BCC2423C254C92528C2512
:101650005CA2629C1D3F040438241C551408DC1C49
:10166000A524182A1B02822A2B3C82061CBC82025B
:10167000301C3905860C2620108E90202C404040CE
:101680009B42C0198C311C24742405290117A0E841
:10169000502C541E166090FE80FE1E44B2AA9A443E
:1016A000232A54251B10185A2D6090906036190279
:1016B0002906313A40CB2C90F0A00633B0501A3CAA
:0816C0000101101220000000DE
:04000005080000C12E
:00000001FF
