:020000040800F2
:10000000701900204D0100085D1E0008FB18000853
:1000100000000000000000000000000000000000E0
:10002000000000000000000000000000A51E000805
:1000300000000000000000000B0100088F1F0008F6
:100040005F0100085F0100085F0100085F01000810
:100050005F010008CD0300085F0100085F01000890
:100060005F010008810300085F0100085F010008CC
:100070005F0100085F010008000000005520000833
:10008000000000005F010008000000000000000008
:100090005F010008000000005F0100085F01000828
:1000A0005F0100085F0100085F0100085F010008B0
:1000B0005F0100085F0100085F0100085F010008A0
:1000C0000348854600F092F800480047892600085A
:1000D00070190020084B19680868203080F30988DF
:1000E000022080F31488BFF36F8F3FBCAE4608BC7C
:1000F00004BC62B61847000034060020EFF31080FD
:1001000072B6704780F310887047EFF309800E4B8A
:100110001A6820381060F0C044464D4656465F4687
:10012000F0C008B572B602F005FF62B60CBC1168EB
:1001300008681030F0C8A046A946B246BB4680F316
:1001400009882038F0C81847340600200448804742
:1001500004480047FEE7FEE7FEE7FEE7FEE7FEE7AE
:1001600001200008C100000830B50B460146002000
:100170002022012409E00D46D5409D4205D31D46AD
:100180009540491B2546954040191546521E002DA5
:10019000F1DC30BD03460B439B0703D009E008C9DF
:1001A000121F08C0042AFAD203E00B780370401C27
:1001B000491C521EF9D27047D2B201E00270401CB5
:1001C000491EFBD270470022F6E710B513460A46D7
:1001D00004461946FFF7F0FF204610BD421C017887
:1001E000401C0029FBD1801A70470000064C0125F5
:1001F000064E05E0E36807CC2B430C3C98471034CF
:10020000B442F7D3FFF760FF683200088832000875
:1002100070B58C180578401C6B075B0F01D1037813
:10022000401C2A1106D10278401C03E006780E70AB
:10023000401C491C5B1EF9D12B0705D40023521E1C
:100240000DD40B70491CFAE70378401CCB1A921CA2
:1002500003E01D780D70491C5B1C521EF9D5A142AC
:10026000D8D3002070BD10B50146806A426D50237E
:100270001A420AD1416D01225202114341650168BF
:10028000CA681205920F05D021E0C06C426B084687
:10029000904710BD2022125C002A18D10A6812076C
:1002A00015D58A6853070122002B09DB4B680C2403
:1002B000A3434B60416D130299431143416506E02E
:1002C000416D202319434165816D1143816500F023
:1002D000DFF810BD10B5806A416D402211434165C1
:1002E000816D04221143816500F0D4F810BD10B572
:1002F000806A00F0CEF810BD38B5044606480549BE
:100300000068FFF731FF604300E0401E00900028C6
:10031000FBD138BD40420F0030060020F8B504463E
:10032000006881688907890F012902D10168C9071E
:1003300022D18168114A10261140012500290ED1D1
:100340008168294381600120FFF7D6FF00F022FC7D
:1003500007460CE000F01EFCC01B0A2807D9606DA0
:1003600030436065A06D2843A0650120F8BD20687A
:100370000068C043C007EDD10020F8BD1700008021
:1003800010B5024800F000FA10BD0000340800204B
:1003900030B5446C1C252C400125A540046C6560DB
:1003A000046863608368102B036803D09960006859
:1003B000C26030BD9A600068C16030BD01A002F02B
:1003C0009DFCFBE7452D54454348000010B5012036
:1003D00000F008FB10BD7047F8B506460D464036E4
:1003E000317C01290DD00121317401688A685207DE
:1003F00009D5416D20221143416500203074012050
:10040000F8BD0220F8BD204B6A68D80547109A4213
:100410001E4C8A6A2B681BD05B035B0B1A438A62F3
:100420002968490305D5A1680143A1600A20FFF7A7
:1004300063FF2868800302D5A0683843A06028685D
:10044000C0031DD5A068012109060843A06017E07C
:100450005B035B0B9A438A622968490302D5A16852
:100460008143A1602868800302D5A068B843A060DA
:100470002868C00304D5A168012000068143A1605B
:1004800000203074F8BD000001100000002701407A
:10049000704770477047000070B5040006D0606D6B
:1004A000264600254036002802D006E0012070BD17
:1004B000A5653574204600F0D3F8606DC00603D4FE
:1004C00021688868400705D5606D10210843606584
:1004D0003574EBE7606DFF22013290430222104336
:1004E000606588688207920F5B48012A02D10A681A
:1004F000D2072BD1032362689B079A4205D05B4247
:100500009A4202D05B009A4209D10A69920092088D
:100510000A6121680A6963681A430A610CE00A6982
:10052000920092080A6181680F22920491438160CF
:1005300081686268114381602168CA6818239A4300
:10054000CA602168CA68A3681A43CA608168012228
:100550005206914381608168A28E520611438160E8
:1005600020688168C90004D4816801221207114300
:1005700081602068C168394A1140C1602069E16822
:10058000022825D000200143204620300278037B3A
:1005900052035B001A431143226B1143A269920379
:1005A0001143E269D20311432268D3681943D16031
:1005B000616A0A46FF3AC23A05D0A26A114322682C
:1005C000D3681943D16042780121012A02D00BE09F
:1005D0000420D8E70078002823D0606D2022104343
:1005E0006065A06D0843A065E06B012820681FD0FE
:1005F0000169C90703D00169490849000161206800
:100600004169C908C900416120684169A26B114371
:100610004161A565606D80088000401C6065002018
:1006200070BD2068C26801231B041A43C260DBE767
:100630000269FF239B009A43026120680269236CD0
:10064000A66C1A43636C33431A4302612068026943
:100650000A430261D3E70000002701401902FEFFB0
:1006600070B586B0064614216846FFF7ACFD1A49FE
:10067000306888422ED11949486B4A1510434863A7
:10068000C86A01221043C862C86A0025104005905C
:100690001320009003200190052069460295000771
:1006A00000F0ACF90E480F4C21C425608020656035
:1006B000A0604000E060800020612020A5616061B2
:1006C0000848083C00F0B4F8002801D0FFF783FE8A
:1006D000F464A66206B070BD002401400010024020
:1006E0000800024034080020F7B5044600680025E1
:1006F000806840073DD426464036307C01280AD029
:1007000001273774E069012807D02046FFF706FE6D
:10071000050002D02EE00220FEBD606D16490840A3
:10072000FF210131084360650020A0653074E16C51
:100730001248C862E16C12480863E16C11484863D2
:1007400021681C2008602068416810221143416024
:100750002068C1683943C1602168E06C4031029B68
:10076000019A00F0ADF8206881680422114381608D
:1007700000E002252846FEBDFEF1FFFF67020008EB
:10078000EF020008D5020008F0B4016C0D680168A2
:100790000C68466C1C2304221E401746B7402F42AB
:1007A0000ED067070CD50C68A40602D40C689443DD
:1007B0000C60416C19408A40016C4A60016B1AE080
:1007C0000227B74002462F402032002F17D0A7073C
:1007D00015D50C68A40605D40C680A25AC430C603A
:1007E00001215171446C02211C40036CA1405960ED
:1007F00000211171C16A002918D0F0BC08470827F0
:10080000B7402F4212D0240710D50C680E25AC43F8
:100810000C60446C01211C400B46A340046C6360D7
:10082000C163517100211171416BE4E7F0BC704765
:1008300070B504003CD01F48256814212818FFF724
:1008400093FC800060641C48206402212046203014
:100850000246417129681948E3680140A068666949
:100860001843236933431843A3691843E3691843C2
:10087000236A1843084328600121A068890388423D
:1008800010D00D488030836A656C1C210D400F2606
:10089000AE40B3438362656C63680D40816AAB40D0
:1008A0000B4383620020E06301215171107170BD20
:1008B000012070BDF8FFFDBF000002400F80FFFF68
:1008C000F8B504468C46203001790025012909D06D
:1008D0000126067141790027012905D007710225FB
:1008E0002846F8BD0220F8BD02214171E763206867
:1008F000016849084900016061462046FFF748FD4C
:10090000206B00282068016801D00E2205E0042237
:1009100091430160206801680A2211430160206848
:10092000016831430160DBE770B5044600F032F93D
:100930000546601C00D0641C00F02CF9401BA0424E
:10094000FAD370BDF8B5012833D1244D02212846D1
:1009500000F010F9224C002860781AD0401E0121C6
:100960008902607040B24E008F00002813D021DA57
:100970000122284600F007F900223146284600F0FF
:1009800002F900223946284600F0FDF80020C04355
:1009900021E0401CE3E70022284600F0F4F80122A1
:1009A0003146284600F0EFF800223946284600F08C
:1009B000EAF8F8BD0128FCDB0022284600F0E3F845
:1009C00000223146284600F0DEF80122394628464A
:1009D00000F0D9F801206070F8BD00000008005058
:1009E0000000002010B504494A69024202D0486163
:1009F000FFF7A8FF10BD000000040140F8B5002378
:100A00000124A2E027469F403A4070D04D68022D55
:100A100001D0122D14D1DD08AD002D1800952D6ADE
:100A20005E07AC46F50E0F26AE46AE406546B543B2
:100A3000AC460E697546AE4065462E43009D2E625B
:100A40004D68012D05D0022D03D0112D01D0122D9E
:100A500016D185680326AC465D00AE46AE406546BD
:100A6000B543AC46CE687546AE4065462E438660BB
:100A700046680D79BE43ED06ED0F9D403543456058
:100A800006685F000325BD40AE46AE430D79B4460F
:100A9000AE07B60FBE4065462E430660C668754673
:100AA000AE438D68BD403543C5604D68ED004BD504
:100AB000294D6E6B26436E639E08284DB60075194E
:100AC000AC46AD689E07360F0F27B740BD430527DC
:100AD0003F07B84201D1002715E0214FB84201D1AC
:100AE000012710E01F4FB84202D102270BE02BE094
:100AF0001D4FB84201D1032705E01C4FB84201D178
:100B0000052700E00627B7402F436546AF60184D24
:100B10002E684F689643FF0300D516432E606E681B
:100B20004F689643BF0300D516436E60AE684F68AA
:100B30009643FF0200D51643AE60EE684F689643B9
:100B4000BF0200D51643EE605B1C0A681546DD4007
:100B500000D057E7F8BD000000100240000001403F
:100B60000004005000080050000C0050001C005011
:100B7000000401400069084000D00120704742692C
:100B80004A4042617047002A01D08161704781620A
:100B90007047000001480068704700002C060020E4
:100BA00070B5024640325378202B1CD11378012BAC
:100BB00019D00123137024245470046825689D43C0
:100BC0002560046825681E03B54325600468256810
:100BD0000D432560006801681943016020205070B2
:100BE0000020107070BD022070BD70B5024640320A
:100BF0005378202B1BD11378012B18D001241470AB
:100C00002423537003681D68A5431D6005682B6885
:100C10000F263602B34309021943296000680168B0
:100C200021430160202050700020107070BD022010
:100C300070BD000070B5040006D0254640356878C8
:100C40000026002802D005E0012070BD2E7020464D
:100C500000F05AF9242068702068016849084900AA
:100C600001600F21606809068843216808612168D6
:100C70008A680120C00382438A60E1680129A16873
:100C800008D021229202114322689160E168022972
:100C900002D005E00143F7E701212268C902516053
:100CA00021684A680F4B1A434A602168CA68824328
:100CB000CA60616920690843A16909020843216883
:100CC000C860216AE06908432168086020680168FB
:100CD0000122114301606664202068702663AE70B3
:100CE000002070BD00800002FFB505460446403577
:100CF000687881B0202878D12878012875D0012023
:100D00002870FFF747FF0746012200901923D103FF
:100D1000204600F051FE00283CD1222068701020AF
:100D2000A870002666640398606204986085666314
:100D3000618D2F48FF2903D9FF22228500903BE0D7
:100D4000618D218500903DE02046029900F020FE53
:100D500016E000F059FE00281CD12068406A616A44
:100D60000870606A401C6062208D401E81B221853F
:100D7000608D401E6085608D002801D000290CD058
:100D8000608D0A9900283A462046E2D100F07CFEA8
:100D900000281CD0012005B0F0BD00970022802162
:100DA00020460A9B00F008FE0028F3D1608DFF2842
:100DB00005D9FF222285009601231B06C4E7608D1A
:100DC00020850096208D0123C2B25B06BCE7216816
:100DD0002020C86121684A68064B1A404A60687042
:100DE000AE702E700020D6E7FFE70220D3E70000A8
:100DF0000024008000E800FEFFB5054604464035AB
:100E0000687881B0202878D12878012875D0012011
:100E10002870FFF7BFFE0746012200901923D10377
:100E2000204600F0C9FD00283CD121206870102028
:100E3000A870002666640398606204986085666303
:100E4000618D2F48FF2903D9FF22228500903BE0C6
:100E5000618D218500903DE02046029900F098FDCB
:100E600016E000F037FE00281CD1606A2168007887
:100E70008862606A401C6062608D401E6085208DC3
:100E8000401E80B22085618D002901D000280CD041
:100E9000608D0A9900283A462046E2D100F0F4FD20
:100EA00000281CD0012005B0F0BD00970022802151
:100EB00020460A9B00F080FD0028F3D1608DFF28BA
:100EC00005D9FF222285009601231B06C4E7608D09
:100ED00020850096208D0123C2B25B06BCE7216805
:100EE0002020C86121684A68064B1A404A60687031
:100EF000AE702E700020D6E7FFE70220D3E7000097
:100F00000020008000E800FE10B586B004461421E1
:100F10006846FFF758F91149206888421BD1104CE8
:100F2000E16A02200143E162E16A01400320059188
:100F30008002009012200190012002900320039073
:100F40000620049069460748FFF758FDA06B012171
:100F500089050843A06306B010BD0000005800409A
:100F6000001002400004005002480168491C016062
:100F7000704700002C06002010B5084800240168C6
:100F8000402211430160032000F00AF8002801D03C
:100F9000012401E000F01CF8204610BD00200240B2
:100FA00070B5054609487D210024C9000068FFF797
:100FB000DBF800F063FB002801D0012404E00022EC
:100FC0002946501E00F020F8204670BD3006002053
:100FD00010B50748416B012211434163816B020444
:100FE0001143816303210022481F00F00DF810BD5A
:100FF00000100240C106C90E012088400149086066
:101000007047000000E100E010B500F029FF10BDBE
:10101000F8B50E4605007DD053480068C007C00FE4
:10102000B0420AD250480168490849003143016082
:101030000068C007C00FB04271D128784B4C8007C0
:1010400005D5E068F0218843A9680843E060287866
:10105000C00752D06868022817D0032818D021682A
:10106000012818D08905002959DAE1688908890022
:101070000143E160FFF78EFD69680746022912D03F
:1010800003291CD0012926D033E021688903EAE72F
:1010900021688901E7E74907E5E7FFF77BFDC11B09
:1010A0003348814223D8E0680007800F0228F4D13A
:1010B00023E0FFF76FFDC11B2D48814217D8E06880
:1010C0000007800F0328F4D117E0FFF763FDC11B71
:1010D000274881420BD8E0680007800F0128F4D12F
:1010E0000BE0FFF757FDC11B2148814201D90320C6
:1010F000F8BDE0680007800FF3D11B480168C907FD
:10110000C90FB1420DD90168490849003143016056
:10111000006800E003E0C007C00FB04201D001202A
:10112000F8BD2878400706D5E06807210902884302
:10113000E9680843E0602878000707D5E0680721E0
:10114000C90288432969C9000843E06000F016F825
:10115000E168084A0906090F515CC8400649086061
:101160000320FFF71DFFF8BD0020024000100240E1
:1011700088130000283200083006002010B5184AF5
:10118000D1680C20084004280BD0082810D00C2867
:1011900010D050680004410F0120C003491C884052
:1011A00010BD1068C00601D50E4810BD0E4810BD18
:1011B0000E4810BD88020E4B000F185C0902D36860
:1011C000890F491CDB0301D5084A05E01268D206E5
:1011D00001D5044A00E0044A5043FEF7C5FF10BDA4
:1011E0000010024000093D000024F40000127A00C3
:1011F00038320008FEB505007ED0FE4CE7680C20B2
:10120000E66807400120000406402878C00747D060
:10121000082F05D00C2F0AD101200004864206D1E8
:10122000206880033CD568680028E5D038E00120BC
:1012300069680004814203D121680143216011E003
:10124000052301221B0492049942216802D1114313
:101250002160F1E78143216021680140009120680D
:1012600090432060686800280DD0FFF793FC009041
:1012700005E0FFF78FFC0099401A64287AD82068AF
:101280008003F6D50CE0FFF785FC009005E0FFF742
:1012900081FC0099401A6428F0D820688003F6D4B5
:1012A0002878800755D50923E868042F0DD00C2F26
:1012B00001D1002E09D000283BD021689943014379
:1012C0002160FFF767FC064627E02168490701D542
:1012D000002891D061681F22120291432A691202EC
:1012E000114361602168994301432160FFF746FF84
:1012F000E16809060A0F00E0BBE1BF49895CC8400C
:10130000BE4908600320FFF74BFE002872D120E0A1
:10131000FFF740FC801B0228B0D820684007F7D5B3
:1013200060681F2109028843296909020843606037
:101330000FE02068400840002060FFF72BFC0646C5
:1013400004E0FFF727FC801B022897D8206840079D
:10135000F7D42878C0065FD5002F0CD0E8690028A4
:1013600049D02068FF21013108432060FFF712FCBB
:1013700006462DE0E4E02068800502D5E8690028F3
:10138000A7D06068072149038843696A0843606001
:101390006068298C0002000A090608436060686AD8
:1013A000410B0120C003491C8840E16809060A0F6F
:1013B0009149895CC840914908600320FFF7F0FD1E
:1013C000002817D128E0FFF7E5FB801B0228A3D8EF
:1013D00020688005F7D56068072149038843696A5A
:1013E000084360606068298C0002000A090608430F
:1013F000606011E023E12168FF200130814321601A
:10140000FFF7C8FB064604E0FFF7C4FB801B022879
:101410009BD820688005F7D42878794E000724D51A
:1014200068690028306910D0012108433061FFF756
:10143000B1FB009005E0FFF7ADFB0099401A0228D0
:101440007ED830698007F6D50FE040084000306153
:10145000FFF7A0FB009005E0FFF79CFB0099401A06
:1014600002286DD830698007F6D42878400764D503
:1014700000200290A06BC00006D4A06B01210907D8
:101480000843A063012002905E480168C90511D499
:101490000168821511430160FFF77CFB009005E0B5
:1014A000FFF778FB0099401A642849D8554800682E
:1014B000C005F5D5FF20AA680130824203D1316909
:1014C0000143316111E001218902002A07D005237F
:1014D0001B029A4203D132690A433261EFE7326953
:1014E00082433261306988433061A86800280ED099
:1014F000FFF750FB009006E0FFF74CFB0099411A04
:10150000414881421CD830698005F5D50DE0FFF7D0
:1015100041FB009006E0FFF73DFB0099411A3A4875
:1015200081420DD830698005F5D40298002804D096
:10153000A16B012000078143A1632878800600E0A9
:101540007CE02ED53148A9694314002916D0A26841
:1015500001210A43A260626B0A436263016A194374
:101560000162FFF717FB064604E0FFF713FB801B41
:10157000022863D8A0688007F7D512E0A16849085F
:101580004900A160016A99430162FFF703FB064627
:1015900004E0FFF7FFFA801B02284FD8A0688007FD
:1015A000F7D4A86A002866D00C2F4DD00126360645
:1015B0000228206805D0B0432060FFF7EBFA05460B
:1015C0003EE0B0432060FFF7E5FA074604E0FFF78E
:1015D000E1FAC01B022831D820688001F7D4296BBA
:1015E000E86AE2680843696BFD231B049A431143D0
:1015F00008430DE0001002402832000830060020A9
:1016000040100240007000408813000000000140BC
:10161000E060206830432060FFF7BCFA054604E034
:10162000FFF7B8FA401B022808D820688001F7D5D8
:1016300021E0FFF7AFFA401B022801D90320FEBDCD
:1016400020688001F5D416E00128F8D0E068012177
:101650000904EA6A014091420BD10F2189042A6BE7
:101660000140914205D1032189050840696B8842F8
:1016700001D00120FEBD0020FEBD0000094910B5CB
:10168000401E884201D9012010BD074C6061032132
:10169000081F00F0E5FB0020A0610720206100206A
:1016A00010BD0000FFFFFF0000E000E0F0B50246C3
:1016B0002032137E012B15D0012717760223537693
:1016C00005686C68AB687026B4430E6849682643A9
:1016D0008024A34319436E60006881605776002020
:1016E0001076F0BD0220F0BD0268D36801210B43E3
:1016F000D360006882685207520F062A02D002683F
:101700000A43026000207047704770B504460068C5
:1017100001690025C9438907002915DBC168C94350
:10172000890711D4E91E01610120207620688069B3
:101730008007204602D0FFF7E7FF04E000F0A0F8A2
:10174000204600F0CFF8257620680169C943490793
:1017500017D4C168C943490713D40421C94301619F
:1017600002202076206880698005800F204602D004
:10177000FFF7CAFF04E000F083F8204600F0B2F85B
:10178000257620680169C943090716D4C168C94391
:10179000090712D40821C94301610420207620687A
:1017A000C0698007204602D0FFF7AEFF04E000F0DA
:1017B00067F8204600F096F8257620680169C9434D
:1017C000C90617D4C168C943C90613D41021C94337
:1017D0000161082020762068C0698005800F2046BE
:1017E00002D0FFF791FF04E000F04AF8204600F035
:1017F00079F8257620680169C943C90708D1C1680D
:10180000C943C90704D1891E0161204600F06CF864
:1018100020680169C943490609D4C168C94349061A
:1018200005D44021C9430161204600F065F870BD30
:1018300070B504462034237E012B0CD0012525767B
:1018400002236376002A08D0042A0AD0082A0CD082
:101850000C2A11D10DE0022070BD006800F02EFCB2
:101860000AE0006800F042FC06E0006800F057FC67
:1018700002E0006800F06EFC65760020207670BD06
:10188000704770B5040005D025462035687E0028D5
:1018900002D006E0012070BD00202876204600F02E
:1018A0000BF802206876211D206800F0DBFB012088
:1018B0006876002070BD000010B50068012189071E
:1018C00088420CD10648816B0122114381630022BA
:1018D00003210F20FFF798FB0F20FFF78BFB10BDB4
:1018E000001002407047000010B5024801F0C2F934
:1018F00010BD0000220000207047FEE701688A69E1
:10190000D243920701D400228A6200688169C943E8
:10191000C90703D08169012211438161704700002A
:10192000F7B5044600680E468069C043C0062BD454
:1019300020272546403520688069C043800612D59F
:10194000701CF8D0FFF726F90299401AB04201D86E
:10195000002EF0D1606C384360646F700020A87076
:1019600028700120FEBD21681020C8612068C76171
:101970002046FFF7C3FF20684168044A11404160D8
:10198000606C04210843E7E70020FEBD00E800FE8C
:10199000F0B50668059C7568064F600D38438543B1
:1019A0008805800D110408431843204305437560E2
:1019B000F0BD0000FF63FF03F8B51D4617460E4655
:1019C000044609E0681C07D0FFF7E4F80699401ABE
:1019D000A8420BD8002D09D0206881693046884381
:1019E0000FD00020B842EDD00020F8BD616C20205F
:1019F00001436164403460700020A07020700120B9
:101A0000F8BD0120EEE70000F7B5002720260546C7
:101A10000446403528E02046029A0199FFF780FFEE
:101A2000002801D00120FEBD20688069C0438006E7
:101A300011D420688169C943490702D4218D002946
:101A400017D1C661206841680E4A11404160676441
:101A50006E70AF7013E0FFF79DF80299411A01987C
:101A6000814208D8002806D020688069C04340071A
:101A7000D1D40020FEBD606C304360646E702F7066
:101A8000D0E7000000E800FE70B516460D4604469B
:101A90000FE0324629462046FFF742FF002801D0DA
:101AA000012070BDFFF776F8801BA84208D8002DF2
:101AB00006D020688069C0438006EAD4002070BD4B
:101AC000616C202001436164403460700020A0708C
:101AD0002070E5E770B516460D46044611E0324623
:101AE00029462046FFF71CFF002801D0012070BDC9
:101AF000681C06D0FFF74EF8801BA84208D8002DBE
:101B000006D020688069C0438007E8D4002070BDFB
:101B1000616C202001436164403460700020A0703B
:101B20002070E3E78CB00126B6020525354C2D0761
:101B300031462846FFF71EF8002803D014E0142091
:101B400000F02CFE31462846FFF714F80028F6D0A6
:101B5000A078002802D0012802D003E0012000E094
:101B60000020A07000F0EBFCA078002802D0012833
:101B700028D042E007A905A80191009004AB06AA6D
:101B800003A902A800F0F4FF6846017F1E48081868
:101B900000906846037D027C1CA108A800F0F6FABC
:101BA0000021012000F04EFD08A800F03FFD68462E
:101BB000007E00906846037B027A1AA108A800F014
:101BC000E5FA13E00F4F1DA11C377B883A8808A85F
:101BD00000F0DCFA0021012000F034FD08A800F03C
:101BE00025FDBA881AA108A800F0D0FA0021022029
:101BF00000F028FD08A800F019FD142000F0CEFD2B
:101C000096E70000000000206C0700004461746546
:101C10003A2025642F25642F2564202020202020B1
:101C20000000000054696D653A20253032643A2581
:101C30003032643A2530326400000000583A2025E2
:101C4000642020593A202564202020200000000034
:101C50005A3A202564202020200000001CB50021D5
:101C60001A480091184A01910260C163120542604E
:101C7000816001240722046182630246C160203230
:101C80001470FF235170C233436281621473016385
:101C90008161042241634261C161FEF7FDFB2003C3
:101CA0000190694600940948FEF796FB08480090A9
:101CB00069460648FEF790FB0648009069460348CF
:101CC000FEF78AFB1CBD0000002401408C060020AA
:101CD0000200000410000010F0B587B0142168461F
:101CE000FEF771FA3348C26A04210A43C262C26A2B
:101CF0000A400592C16A01252943C162C16A29408F
:101D00000591C16A02263143C162C06A2A4F304040
:101D10000590002239462948FEF735FF05200022AC
:101D200040210007FEF72FFFFF210022F831244851
:101D3000FEF729FF2348002401906946009502948C
:101D40001E48FEF75BFE019469461C48009602940B
:101D5000FEF754FE029469461848009701950394D3
:101D6000FEF74CFE40200090052002946946019544
:101D700003940007FEF742FE0F20C00100900520EB
:101D80000194694602940007FEF738FEFF20F83000
:101D9000009002946946019503940948FEF72EFECF
:101DA000002203210520FFF72FF90520FFF722F974
:101DB00007B0F0BD001002407C1C0000000800507D
:101DC000000400500000111010B50D480B490160CF
:101DD0000C49416000218160016141618161012202
:101DE000C161C2600162FEF725FF00210448FEF7D1
:101DF000D7FE00210248FEF7F8FE10BD0058004053
:101E0000E8060020BB7C700010B586B00024059465
:101E100001211148049400940194029489070394C9
:101E200001600121846041607D210461C900446139
:101E3000C160FFF726FD049404A907480594FFF745
:101E400035FC0094019402940022694602480394F0
:101E5000FFF7EEFC06B010BD34070020704700000D
:101E60008307FF22DB0E9A408907090E994000285C
:101E70000BDA0007000F0838830808489B00181881
:101E8000C36993430B43C3617047830804489B00B5
:101E90001B181868904308431860704700ED00E075
:101EA00000E400E07047FF25013505263607802154
:101EB00034463046FEF75EFE002803D018E00A20C4
:101EC00000F06CFC80212046FEF754FE0028F6D07E
:101ED000002740212046FEF752FE012000F05EFC64
:101EE0007F1C642FF5DB002240212046FEF74BFECD
:101EF000294626462046FEF73DFE002803D01AE07C
:101F00000A2000F04BFC29463046FEF733FE00283D
:101F1000F6D00024FF272D3740213046FEF72FFE54
:101F2000012000F03BFC641CBC42F5DB0022402198
:101F30003046FEF728FE0124640221463046FEF7B3
:101F400019FE002803D01AE00A2000F027FC2146E1
:101F50003046FEF70FFE0028F6D000244B27FF0086
:101F600040213046FEF70BFE012000F017FC641CF8
:101F7000BC42F5DB002240213046FEF704FE012082
:101F800000F00CFC93E7012000F008FCFBE710B523
:101F9000FEF7EAFF00F00FFC10BD000010B594B092
:101FA00038216846FEF70FF914210EA8FEF70BF949
:101FB000124801680322D2029143C21489180160B9
:101FC0000220009001210A90039140040C9000012E
:101FD000102100240D900B9404916846FFF70AF934
:101FE0000F200E9003200F90109411940121129451
:101FF0000EA8FFF70DF814B010BD000000700040EF
:1020000010480168821511430160C1680E4A1140F1
:10201000C16001680D4A11400160816849084900AA
:10202000816001680122920491430160C168FD2230
:1020300012049143C160002101610549C003886019
:1020400070470000001002400C40FF88F6FFF6FECB
:1020500000ED00E010B50248FFF757FB10BD00008F
:102060003407002070B5026801239B07114C124D04
:10207000984203D0A04201D0A84203D17026B243B7
:102080004E683243984203D0A04201D0A84204D106
:1020900003231B029A43CB681A4380239A430B699C
:1020A0001A4302608A68C262096881620121416143
:1020B00070BD0000000801400014014030B5026A04
:1020C000520852000262026A456883697024A34381
:1020D0009C080B68A40023430224A2438C6845603B
:1020E0001443836149684163046230BD30B5026ABC
:1020F00010239A430262036A4568826973242402AA
:10210000A2430C6824021443202293438A6845604A
:1021100012011A43846149688163026230BD30B59F
:10212000026AFF2301339A430262026A4568C36967
:102130007024A3439C080B68A40023430124640279
:10214000A2438C68456024021443C3614968C1639B
:10215000046230BD30B5026A01231B039A43026258
:10216000036A4568C26973242402A2430C682402EE
:1021700014430122520393438A68456012031A43B1
:10218000C46149680164026230BD00000FB410B53B
:1021900004A9074B02AA039800F01CF8044602A900
:1021A000002000F0BFF9204610BC08BC04B018475E
:1021B0002525000802E008C8121F08C1002AFAD12C
:1021C00070477047002001E001C1121F002AFBD1B7
:1021D00070470000FFB58FB00546002606E02528B1
:1021E0000AD0129A119990476D1C761C2878002805
:1021F000F5D1304613B0F0BD002402940121B54A58
:10220000009400E004436D1C2B780846203B984066
:102210001042F7D128782A280ED0022228780146C9
:102220003039092916D802990A2359433039401800
:1022300014436D1C0290F1E7109802C802911090AF
:10224000002904DA0120400304434842029002209E
:1022500004436D1C28782E2817D104200443687885
:102260006D1C2A280CD110986D1C02C8009110908A
:102270000BE000990A225143303940186D1C009040
:102280002878014630390929F3D928786C2810D0EC
:1022900006DC4C281AD068280ED06A2817D104E032
:1022A000742813D07A2812D110E00120400504438D
:1022B0000CE00121090501E0032109050C436978BF
:1022C000814203D10120000524186D1C6D1C287863
:1022D000692874D006DC00288BD0632827D06428B6
:1022E00006D16CE06E2808D073282CD0752878D0E1
:1022F000129A11999047761C5FE06002400F022805
:1023000009D003280DD00428109801680DD00E6064
:10231000001D109051E01098F21701680E604A609D
:10232000F6E7109801680E80F2E70E70F0E710985B
:102330006A4601781173001D10900020507303A8A5
:102340000190012005E0109802C801911090002032
:10235000C04361070CD5002700E07F1C00998F4225
:102360000FDA8742F9DB0199C95D0029F5D108E050
:10237000002700E07F1C8742FCDB0199C95D002932
:10238000F8D102982146C01B0290129B119A00F0CE
:10239000B3F88019C61907E0019801990078491C23
:1023A0000191129A119990477F1EF5D22146129BF6
:1023B000119A029800F090F886196D1C16E70A2011
:1023C0000190109901C910916102490F032900D1B0
:1023D00000B2042900D140B2002803DA40422D2186
:1023E00003E00DE0210504D52B216A46117301217C
:1023F00003E0E10711D02021F7E70CAF0C9114E0C6
:102400000A200190109901C910916102490F032916
:1024100000D180B2042900D1C0B20021EDE70199BA
:10242000FDF7A2FE30317F1E39700028F7D104A8D5
:10243000C01B20300190600704D5012000048443B4
:10244000009801E0012000900199884201DD401AC6
:1024500000E00020411800900C9809180298401ADA
:102460000290E00306D42146129B119A029800F0D4
:1024700043F8861900200D9008E003A9085C129A21
:10248000119990470D98401C761C0D900C9988422C
:10249000F3DBE0030CD52146129B119A029800F061
:1024A0002BF8861904E0129A302011999047761C77
:1024B0000099481E00900029F5DC05E03878129A52
:1024C0007F1C11999047761C0199481E01900029A4
:1024D000F4DC6BE709280100F8B5044600251E4628
:1024E0001746880404D405E039462020B0476D1C07
:1024F000641EF9D52846F8BDFFB50446002581B015
:102500001E46C80301D5302700E02027880404D5E3
:1025100005E038460399B0476D1C641EF9D528467E
:1025200005B0F0BD0A68531C0B60107070470109BC
:102530000A2200075143000F0818C0B2704710B5B7
:102540000121002000F08AF810BD000070B504469B
:10255000C0060C4DC20F10212846FEF714FBA00642
:10256000C20F20212846FEF70EFB6006C20F402155
:102570002846FEF708FBE20980212846FEF703FB08
:1025800070BD00000004005010B51C4C0122110267
:102590002046FEF7F8FA1420FEF7C6F900220121C2
:1025A0002046FEF7F0FA002204212046FEF7EBFA5F
:1025B0003020FFF7CBFF00F023F800F021F800F007
:1025C0001FF82020FFF7C2FF00F01AF800F018F8FB
:1025D0001020FFF7BBFF00F013F80020FFF7B6FF55
:1025E00000F00EF8C020FFF7B1FF00F009F8282135
:1025F000002000F033F8FFF7A2FF10BD00040050E8
:1026000010B50120FEF790F9074C01220421204665
:10261000FEF7B9FA0120FEF787F9002204212046CF
:10262000FEF7B1FA10BD00000004005070B5054679
:10263000002403E0012000F011F8641C295D00294A
:10264000F8D170BD10B5012806D0C0204018C1B225
:10265000002000F003F810BD8020F7E710B50C460D
:10266000024601210748FEF78EFA20090001FFF714
:102670006DFFFFF7C5FF2007000EFFF767FFFFF7AD
:10268000BFFF10BD0004005096B0FEF775FCFFF7C9
:1026900085FCFFF721FB3948016B012211430163DF
:1026A000006B03211040149000220920FEF7ACFCBF
:1026B0000920FEF79FFCFFF7D1FAFFF785FBFFF734
:1026C000A3FBFFF761FF2E4C012240212046FEF7BD
:1026D0005AFA002210212046FEF755FA0022202146
:1026E0002046FEF750FA002204212046FEF74BFA5E
:1026F000002208212046FEF746FA00F081FA002069
:1027000000F0D6FA1F48FEF7EFFF1E4803221E49CD
:10271000A838FDF7E9FF14221C496846FDF73AFD89
:102720000021684600F04FF8174C18491C3CE06047
:102730001422143105A8FDF72DFD002105A800F095
:1027400042F812492061142228310AA8FDF722FD1F
:1027500000210AA800F037F80C49606114223C31CE
:102760000FA8FDF717FD00210FA800F02CF8A061BD
:1027700000F01CF80A2000F011F8FBE700100240FE
:1027800000080050340700201C000020D831000849
:1027900001460020842900D0C81C704710B50028CD
:1027A00000D1012000F080FB002010BD10B500F02A
:1027B00093FB002010BD10B500F04AFC012801D0A9
:1027C00000F00CFC10BD3EB5044608200D46205E0E
:1027D000FFF7DEFF02A901910090208A2B4682B20A
:1027E0002168606800F00CFC012801D000203EBD8B
:1027F00002983EBDF8B5134C0F4666690546206841
:10280000001D00F0C3FA681C07D1002F05D0216815
:102810000D48091D00F0F3FAF8BD206875194560F0
:102820002168B54204D2A068091D00F0D0FAF8BDB5
:102830006068091D00F0CBFA206B8542F7D2256352
:10284000F8BD00003406002058090020F8B5054600
:1028500000F0E2FA294C2069401C20612068284FD2
:10286000002803D0E069002827D02CE025602069EB
:10287000012828D1002614207043C01900F099FACD
:10288000761C072EF7D31E488C3000F092FA1C48B5
:10289000A03000F08EFA1A48B43000F08AFA1848D6
:1028A000C83000F086FA1648DC3000F082FA14488E
:1028B0008C3060601430A06005E02068E96AC06A6E
:1028C000884200D82560E06A401CE062E86AA1699D
:1028D000884200D9A06114214843C019291D00F085
:1028E0008EFA00F0A5FAE069002806D02068E96AAF
:1028F000C06A884201D200F0CBFAF8BD340600204D
:102900007C08002010B50446006B00F09FFA2046BA
:1029100000F09CFA10BD000003210E488902420716
:1029200005D0C01DC0080B4AC000821A891A0A4A85
:102930000023411809C20839C908C900183A1160B2
:102940004B600B600B1A0AC093600120C0075360F4
:10295000D06070476C090020800600200F4E104C9C
:102960003746C83F11E000F057FAF068C568281DE7
:1029700000F00CFA2069401E2061E068401EE06013
:1029800000F056FA2846FFF7BDFFE0680028EAD1BC
:1029900038680128F9D900F07BFAF6E744090020ED
:1029A00034060020FFB581B00C9C9000236B001F03
:1029B0001818C6080A9DF600700701D072B6FEE727
:1029C00023180A5C20331A750A5C002A02D0401CC6
:1029D0001028F5D32046403000270090C770072DFF
:1029E00000D30625E562A764201D656400F0ECF9BC
:1029F0002046183000F0E8F924610720401B64628B
:102A0000A061E764009807743046049A019900F0C9
:102A10009FF820600B98002800D0046005B0F0BD3E
:102A200030B5114900E011460A688242FBD34B6879
:102A30005C18844203D1406818184860084643680F
:102A40001C18944209D1084C103C2468A24209D0B9
:102A500052689A1842600A6812680260814200D087
:102A6000086030BD0460F9E7800600200648416830
:102A70000968002905D04168C968C96849680163C7
:102A800070470021C943FAE7340600200348006874
:102A9000401C72B600D0FEE7FEE70000880600206A
:102AA000F8B50546002700F03DFA284E30680028AA
:102AB00001D1FFF731FFF06805423FD1002D3DD035
:102AC0000835680708D06807400F0821081A45191B
:102AD000680701D072B6FEE7002D2FD070688542DE
:102AE0002CD81A48103001460C6801E020460C46EC
:102AF0006168A94202D221680029F7D131688C426D
:102B00001CD007682168016060680837411B1029E4
:102B100008D96019420701D072B6FEE741606560CE
:102B2000FFF77EFF61687068401A7060B26890427B
:102B300000D2B060F0680143002003C400F0F6FA50
:102B4000780701D072B6FEE73846F8BD700600205F
:102B500010B50124031F24061C601B1F1960191FD8
:102B6000024B0B60143940380A6010BD8D2A0008F2
:102B7000FFB583B00D460020694608711C46164615
:102B80006427012301AAD0211C480097FEF734F9DD
:102B9000012830D0072301AAD02118480097FEF75A
:102BA000A3F8012827D0684600794006400EFFF7B9
:102BB000BEFC307068464079FFF7B9FC2870684663
:102BC00080798006800EFFF7B2FC03990870684692
:102BD000007AFFF7ACFC20706846407AFFF7A7FC4C
:102BE0000C9908706846807AFFF7A1FC0D9908706F
:102BF000012007B0F0BD0020FBE70000E806002040
:102C000010B5064C012204212046FDF7BCFF00222E
:102C100004212046FDF7B7FF10BD0000000800505A
:102C2000F8B50C46054608212046FDF7CCFA0022EF
:102C3000012600238021D140E85C084001D03046C5
:102C40009840A75C5B1C3843DBB2A054082BF3D33D
:102C5000521CD2B2082AECD3F8BD00001CB569465C
:102C6000FFF7DEFF082269460148FDF793FA1CBD15
:102C70002200002070B50D4C05462078002801D1B7
:102C8000FFF7BEFF00F072F82078285CC043C0B2A6
:102C900000F00EF8FF2000F00BF82078082801D291
:102CA000401C00E00020207070BD000000000020EB
:102CB00070B5114E054607242846E040C207D20FE2
:102CC00010213046FDF75FFF012220213046FDF73D
:102CD0005AFF002220213046FDF755FF641EEBD538
:102CE000012240213046FDF74EFF002240213046B0
:102CF000FDF749FF70BD000000080050FEB5082731
:102D000006460024174D0FE017490020325D0623C8
:102D10005A4312188A5CEA557F1C401CC0B2FFB2AD
:102D20000628F3D3641CE4B23046FDF757FAA042FC
:102D3000EAD800240CE0291908226846FDF72AFA8F
:102D40006846FFF78BFF6420FFF728FD641CE4B2A0
:102D50003046FDF743FA062148430830A042EAD83E
:102D6000FEBD0000700700202A00002010B5064CB0
:102D7000012208212046FDF706FF002208212046F7
:102D8000FDF701FF10BD0000000800504368826895
:102D900001699A60836842685A604A68824201D138
:102DA00082684A60002202610868401E0860086864
:102DB00070470146083100224160D243C160826001
:102DC000016100210160704700210161704730B549
:102DD0000B685A1C02D00246083202E0026904E085
:102DE0002246546825689D42FAD953684B60996021
:102DF0008A60516008610168491C016030BD426809
:102E00004A6093688B6093685960916008610168BB
:102E1000491C01607047000072B604480168491CF3
:102E20000160BFF34F8FBFF36F8F7047880600209C
:102E300005490868002804D0401E086000D162B629
:102E4000704772B6FEE700008806002070B50028C3
:102E50001AD004460D4D083C6068E968084201D16B
:102E600072B6FEE72268002A01D072B6FEE78843F8
:102E7000606000F057F86068696840186860204634
:102E8000FFF7CEFD00F052F970BD00007006002083
:102E90000120044900074860BFF34F8FBFF36F8FD5
:102EA0007047000000ED00E010B502000FD00948A7
:102EB000806B002801D072B6FEE700F033F80021E5
:102EC0001046FFF797FC00F031F9002801D1FFF719
:102ED000DFFF10BD340600201CB50E480024019011
:102EE000234640220CA100940D4800F089F80128E7
:102EF00003D0401C0CD172B6FEE772B60021054823
:102F0000C943343801630121C161446100F03EF8D6
:102F10001CBD00006806002049444C45000000002C
:102F20005D2900080248816B491C816370470000DD
:102F30003406002010B51348816B002902D001210E
:102F4000416210BD0021416281690F4A02E00029FF
:102F500015D0491E14234B43D358002BF7D014230C
:102F60004B439A18536814465B6808345360A34275
:102F700001D15B685360DA680260816110BD72B68E
:102F8000FEE70000340600207C08002070B50F48E2
:102F9000016AFF22120411430162016A1202114305
:102FA00001620B4C00252561A5610A487D21C900FD
:102FB0000068FDF7D9F8401E6061072020610648CF
:102FC0000560FDF787F8002070BD000000ED00E00F
:102FD00000E000E0300600208806002010B5FDF774
:102FE0008DF8044600F044F8002803D0012003497E
:102FF000000748602046FDF785F810BD00ED00E0B1
:10300000FFB585B0164690000F9FFFF749FD0500FC
:103010001AD05420FFF744FD040012D0256300218C
:103020000E9803910197009002943246089B0699EE
:103030000598FFF7B7FC2046FFF708FC012009B010
:10304000F0BD2846FFF702FF0020C043F7E700006D
:103050000648C169002904D0806B002803D00020F5
:10306000704701207047022070470000340600209E
:10307000F8B52C4C0027A06B002808D0206A401C13
:103080002062606A002800D001273846F8BD6669D2
:10309000761C66610ED160680068002801D072B6A7
:1030A000FEE76068A1686160A060A06A401CA06241
:1030B000FFF7DCFC206B86420AD3606800680028BA
:1030C00010D06068C068C568686886420DD2206309
:1030D00020681421C06A4843134908580128D0D9F0
:1030E0000127CEE70020C043F1E7281DFFF74EFE81
:1030F000A86A002803D028461830FFF747FEE86A80
:10310000A169884200D9A0611421484306494018AA
:10311000291DFFF774FEE86A2168C96A8842CCD38A
:103120000127CAE7340600207C080020F8B5284CA7
:103130000025A06B2E46002808D0FFF76DFEA06B7F
:10314000401EA063A06B002802D03DE072B6FEE7EF
:103150002169204F00291DD136E0F868C56828464E
:103160001830FFF713FE281DFFF710FEE86AA1696B
:10317000884200D9A061142148431649B439401847
:10318000291DFFF73CFEE86A2168C96A884201D31D
:103190000120606238680028DFD1002D01D0FFF7E0
:1031A00065FC256A002D09D00127FFF761FF002883
:1031B00000D067626D1EF8D100202062606A00288E
:1031C00002D00126FFF764FEFFF732FE3046F8BD5D
:1031D000340600203009002050320008871F000804
:1031E0000000000000000000400000005C32000809
:1031F000BD030008FDFF00000000000040000000CB
:1032000044320008251B0008FDFF000000000000FC
:103210004000000048320008A71E0008FDFF000023
:10322000000000004000000000000000000000005E
:103230000102030406070809030406080C101820FD
:10324000300000004C434400536F756E6400000072
:1032500064656661756C745461736B00446F744D82
:103260006174726978000000883200080000002054
:103270008C06000010020008143700088C0600209D
:10328000E4120000C42100080131167CA28AA27C4D
:10329000167CD6F6D67C16387C3E7C3816183C7EDA
:1032A0003C18160C6CFE6C0C0619183A7E3A18166F
:1032B0000C12526C707660949E946016067E50AC30
:1032C000FC2654386C385415FE7C38102510387C98
:1032D000FE1A284E22281AFA0211166090FE80FE6D
:1032E0001644B2AA9A441A0601191E156DFF6D28DC
:1032F000162060FE602016080CFE0C085B10103CC7
:103300001310101B1E0201111B107C0211160C3C25
:10331000FC3C0C86C0F0FCF0C01B60FA7D2BE0C0CA
:10332000031B247E02112524D4564816C6C8102635
:10333000C63E6C926A040A1F29EB428233827C19D2
:103340005F194E19661960111A0783190C190119B2
:10335000C1290C1604081020401D7C8A92A22C243E
:1033600042FE0216468A92926216449292926C161D
:10337000182848FE081AF40C128C163C5292920C33
:103380001E808E90A0C06C291E2660929294784375
:1033900036362A37061C102844792A2401197E144F
:1033A0004428101E40809A90608F14BAAA78167E26
:1033B0008888887E3AFE3C167C828282441AFE0609
:1033C0003A7C1212821EFE90909080181492925EA7
:1033D0001AFEA11AFE421AFE4E1E0C020202FC1236
:1033E000295B1AFE0C12022EFE402040FE06192414
:1033F00029481942193C29662C8A847A0C1398664C
:103400001A6454124C168080FE80803AFC421EF8EA
:10341000040204F80C1A3C0C16C6281028C616E044
:10342000100E10E0358E92A2C2198B2119531B0881
:1034300004781A827D3F204080402001012133C062
:10344000E016042A2A2A1E16FE2222221C1A1C0614
:103450003A040612FE1A1C18121025107E909016BF
:10346000182525253E45FE20201E235E021D020153
:1034700021BE5F440814221AFE121C3E20181F3A77
:103480003E242942121C7A3F54123F1D221E222044
:103490004E1954120425207C2224253C02043E1A95
:1034A00038C01238163C060C063C25360808361B78
:1034B00039050B1125262A2A322B107CC02142EE19
:1034C0001582827C1019BF1A803C1564C4643C16B6
:1034D00078858784481CBC02048A19AE13AA901E02
:1034E00004AAAAAA1E063A2A061AAAD81604EAAA02
:1034F000EA1E1638454744281A1C1E1A10063A2A96
:10350000061AAADE112B803E603B80BE061A3EC61C
:10351000160E9424940E1D1EF4A4F4CC195412A279
:10352000162C2A3E2A1A167E90FE92921D1CA2A2EA
:103530009C6C1BA222061B9CA2DD111C3C82847E7B
:103540002BBC82CC1D398506BC0C1B424206153CA7
:103550008202BC17010E161A1C2016127C9292468B
:10356000167E86BAC2FC1644281028441602117E24
:1035700090402B042AAE21297E2B1C225A2B3C0280
:103580004E1D5E90508E062488449E1A10B4127A06
:1035900025728A8A72280D0C12B202047C82BAD279
:1035A000AA7C200112381EE81032560A061B2C5441
:1035B000481C0CBE0C302A28031B2810032B228821
:1035C000022B55AA022BDD7702311AFF231B1010A4
:1035D00006111C0E14A4EA5B0E94061B140E5A2E40
:1035E000AA827C50DF24190419061D505F407F0613
:1035F00034D010F025182466241E94543E5494426E
:10360000521F1AF00A4B1010062C1F101038390CDC
:103610004901190C1116046AAA6A9E1E0E54A4547C
:103620008E2E14D050501E7F405F505054190C19EC
:1036300060190C196A1ADF0C49012ADF0C1116BA3D
:10364000444444BA2C44AA9AD215FE92827C1E3E6F
:10365000AAAAAA22063A2A0634AA2A2242E0342238
:10366000BEA24AA2062B3EA2DE29AE2119903AFF45
:10367000013A0F013142EE14A2BE223AF0011125A7
:103680003C42C2BC257F52522C2B3CC20C25BCC2F2
:10369000423C254C92528C255CA2629C1D3F040446
:1036A00038241C551408DC1CA524182A1B02822A65
:1036B0002B3C82061CBC8202301C3905860C26205D
:1036C000108E90202C4040409B42C0198C311C240D
:1036D000742405290117A0E8502C541E166090FE92
:1036E00080FE1E44B2AA9A44232A54251B10185A5D
:1036F0002D609090603619022906313A40CB2C900B
:10370000F0A00633B0501A3C01F1197501531AAA02
:0437100001000000B4
:04000005080000C12E
:00000001FF
