:020000040800F2
:1000000098050020D5000008B5100008E70F00088B
:1000100000000000000000000000000000000000E0
:1000200000000000000000000000000009110008AE
:100030000000000000000000051100080B1100087E
:10004000E7000008FD100008E7000008B7020008FC
:1000500007110008AD020008E7000008E7000008EB
:10006000E7000008E7000008E7000008E7000008D4
:10007000E7000008E700000800000000E7000008B3
:1000800000000000CD11000800000000000000008A
:10009000E700000800000000E7000008E700000893
:1000A000E7000008E7000008E7000008E700000894
:1000B000E7000008E7000008E7000008E700000884
:1000C0000348854600F044F800480047FD15000845
:1000D000980500200448804704480047FEE7FEE7F3
:1000E000FEE7FEE7FEE7FEE779110008C100000821
:1000F00030B50B46014600202022012409E00D46C0
:10010000D5409D4205D31D469540491B2546954047
:1001100040191546521E002DF1DC30BDD2B201E06F
:100120000270401C491EFBD270470022F6E710B552
:1001300013460A4604461946FFF7F0FF204610BD55
:10014000421C0178401C0029FBD1801A7047000036
:10015000064C0125064E05E0E36807CC2B430C3C1A
:1001600098471034B442F7D3FFF7AEFF28170008C2
:100170004817000870B58C180578401C6B075B0F9A
:1001800001D10378401C2A1106D10278401C03E0FB
:1001900006780E70401C491C5B1EF9D12B0705D454
:1001A0000023521E0DD40B70491CFAE70378401C43
:1001B000CB1A921C03E01D780D70491C5B1C521E6B
:1001C000F9D5A142D8D3002070BD0000FEB5364D50
:1001D00007460024002008231A1B002129543978DF
:1001E0000E463039092901D9314637392E4EC9001A
:1001F00008368919095CD1402954401C0828ECDBD9
:10020000294801F03FF9642000F0B8F8641C082C7C
:10021000E0DB3846FFF794FF00240090C000029016
:100220003EE0E017400F001984464005000E395C9F
:100230000A463039092901D911463739009B421C39
:100240005B1EC9B29A4201D9242006E038184078D2
:10025000392801D8303800E03738C900020689193A
:100260000191510D89198E466146C908C900611A6C
:10027000002008238C465A1A01996346095C99406C
:1002800073461B5CD34019432954401C0828F3DBF8
:10029000054801F0F7F8642000F070F80298641C3B
:1002A000A042BED8FEBD00000C00002010B5012009
:1002B00000F0F8F810BD10B500F070F810BD0000A7
:1002C00010B5084900224A6107494B684C15234381
:1002D0004B604B68082423434B60C009C001026097
:1002E00010BD0000800100200020024010B5214A0E
:1002F00000219069C305204804D5416902231943B0
:100300004161911593699B0505D5436901242343F8
:1003100043616302194393695B0505D5436908246A
:1003200023434361E301194393691B0505D54369E1
:100330000424234343616302194393699B0405D555
:1003400043691024234343616302194393699B0368
:1003500004D5446920231C43446119439369DB039A
:1003600005D54369402423434361A00201439161C1
:1003700010BD0000002002408001002070B504463E
:1003800000F064F90546601C00D0641C00F05EF9C2
:10039000401BA042FAD370BD70470000F8B5344C42
:1003A000A0690026C005334D002811DBA069800537
:1003B0000ED4A06940050BD4A069000508D4A0693B
:1003C000800405D4A069800302D4A069C00309D5C4
:1003D000287801282BD0AF68FFF788FF384600F057
:1003E0004BF82E70A069800712D50220A0612878F2
:1003F00000280DD0287801281ED060680821884385
:100400006060A868FFF7C8FF0020C043A8602E7096
:10041000287800280AD160684121C90088436060BB
:10042000606803210904884360602E74F8BDEF689A
:100430000020C043E860CFE76868401E68606868D5
:1004400000280DD0E868FFF7A7FFE8688030E86073
:1004500061680122520291436160FFF731FFD7E7E3
:100460000020C043E8602E70FFF796FFD0E7000041
:1004700000200240800100207047000010B50128D4
:1004800009D10221054800F0D5F80549002808687F
:1004900002D0401E086010BD401CFBE70008005061
:1004A0000800002010B504494A69024202D04861A0
:1004B000FFF7E4FF10BD000000040140F8B5002381
:1004C0000124A2E027469F403A4070D04D68022D9B
:1004D00001D0122D14D1DD08AD002D1800952D6A24
:1004E0005E07AC46F50E0F26AE46AE406546B543F8
:1004F000AC460E697546AE4065462E43009D2E62A1
:100500004D68012D05D0022D03D0112D01D0122DE3
:1005100016D185680326AC465D00AE46AE40654602
:10052000B543AC46CE687546AE4065462E43866000
:1005300046680D79BE43ED06ED0F9D40354345609D
:1005400006685F000325BD40AE46AE430D79B44654
:10055000AE07B60FBE4065462E430660C6687546B8
:10056000AE438D68BD403543C5604D68ED004BD549
:10057000294D6E6B26436E639E08284DB600751993
:10058000AC46AD689E07360F0F27B740BD43052721
:100590003F07B84201D1002715E0214FB84201D1F1
:1005A000012710E01F4FB84202D102270BE02BE0D9
:1005B0001D4FB84201D1032705E01C4FB84201D1BD
:1005C000052700E00627B7402F436546AF60184D6A
:1005D0002E684F689643FF0300D516432E606E6861
:1005E0004F689643BF0300D516436E60AE684F68F0
:1005F0009643FF0200D51643AE60EE684F689643FF
:10060000BF0200D51643EE605B1C0A681546DD404C
:1006100000D057E7F8BD0000001002400000014084
:100620000004005000080050000C0050001C005056
:10063000000401400069084000D001207047002AF2
:1006400001D08161704781627047000001480068F5
:10065000704700003C01002002480168491C01600D
:10066000704700003C01002010B5084800240168D4
:10067000402211430160204600F00AF8002801D012
:10068000012401E000F01CF8204610BD00200240CB
:1006900070B5054609487D210024C9000068FFF7B0
:1006A00027FD00F087FB002801D0012404E0002290
:1006B0002946501E00F034F8204670BD400100204D
:1006C00010B51148416B012211434163816B020453
:1006D0001143816300221146012000F021F801201E
:1006E00000F014F800221146032000F019F803204E
:1006F00000F00CF800221146042000F011F804204C
:1007000000F004F810BD000000100240C106C90E40
:1007100001208840014908607047000000E100E0C6
:1007200010B500F0C9FC10BD7047000010B5054CB5
:100730006069C00304D5FFF7F7FF01200004606182
:1007400010BD000000040140F8B50E4605007DD044
:1007500053480068C007C00FB0420AD25048016831
:1007600049084900314301600068C007C00FB0422A
:1007700071D128784B4C800705D5E068F02188437B
:10078000A9680843E0602878C00752D0686802284A
:1007900017D0032818D02168012818D0890500290E
:1007A00059DAE168890889000143E160FFF74EFFEB
:1007B00069680746022912D003291CD0012926D0D6
:1007C00033E021688903EAE721688901E7E74907FF
:1007D000E5E7FFF73BFFC11B3348814223D8E068C0
:1007E0000007800F0228F4D123E0FFF72FFFC11B81
:1007F0002D48814217D8E0680007800F0328F4D104
:1008000017E0FFF723FFC11B274881420BD8E068A0
:100810000007800F0128F4D10BE0FFF717FFC11B81
:100820002148814201D90320F8BDE0680007800F0C
:10083000F3D11B480168C907C90FB1420DD901683E
:100840004908490031430160006800E003E0C00747
:10085000C00FB04201D00120F8BD2878400706D56E
:10086000E068072109028843E9680843E0602878C6
:10087000000707D5E0680721C90288432969C90034
:100880000843E06000F016F8E168084A0906090F1D
:10089000515CC840064908600020FFF7F9FEF8BD2A
:1008A0000020024000100240881300000C170008CE
:1008B0004001002010B5184AD1680C2008400428D7
:1008C0000BD0082810D00C2810D050680004410F1D
:1008D0000120C003491C884010BD1068C00601D526
:1008E0000E4810BD0E4810BD0E4810BD88020E4BBC
:1008F000000F185C0902D368890F491CDB0301D57E
:10090000084A05E01268D20601D5044A00E0044A0C
:100910005043FFF7EDFB10BD0010024000093D0001
:100920000024F40000127A001C170008FEB5050030
:100930007ED0FE4CE7680C20E668074001200004EA
:1009400006402878C00747D0082F05D00C2F0AD1C1
:1009500001200004864206D1206880033CD56868E7
:100960000028E5D038E0012069680004814203D105
:1009700021680143216011E0052301221B04920438
:100980009942216802D111432160F1E7814321603E
:100990002168014000912068904320606868002829
:1009A0000DD0FFF753FE009005E0FFF74FFE0099D2
:1009B000401A64287AD820688003F6D50CE0FFF747
:1009C00045FE009005E0FFF741FE0099401A6428BB
:1009D000F0D820688003F6D42878800755D50923FD
:1009E000E868042F0DD00C2F01D1002E09D000286B
:1009F0003BD02168994301432160FFF727FE06465B
:100A000027E02168490701D5002891D061681F229D
:100A1000120291432A6912021143616021689943CD
:100A200001432160FFF746FFE16809060A0F00E075
:100A3000BBE1BF49895CC840BE4908600020FFF7A0
:100A400027FE002872D120E0FFF700FE801B02285D
:100A5000B0D820684007F7D560681F210902884395
:100A600029690902084360600FE0206840084000DF
:100A70002060FFF7EBFD064604E0FFF7E7FD801B73
:100A8000022897D820684007F7D42878C0065FD599
:100A9000002F0CD0E869002849D02068FF210131DF
:100AA00008432060FFF7D2FD06462DE0E4E0206811
:100AB000800502D5E8690028A7D0606807214903AE
:100AC0008843696A084360606068298C0002000AF4
:100AD000090608436060686A410B0120C003491C95
:100AE0008840E16809060A0F9149895CC84091492C
:100AF00008600020FFF7CCFD002817D128E0FFF7A1
:100B0000A5FD801B0228A3D820688005F7D5606862
:100B1000072149038843696A084360606068298C3B
:100B20000002000A09060843606011E023E1216821
:100B3000FF20013081432160FFF788FD064604E075
:100B4000FFF784FD801B02289BD820688005F7D41E
:100B50002878794E000724D568690028306910D0BC
:100B6000012108433061FFF771FD009005E0FFF7B8
:100B70006DFD0099401A02287ED830698007F6D5AD
:100B80000FE0400840003061FFF760FD009005E095
:100B9000FFF75CFD0099401A02286DD83069800784
:100BA000F6D42878400764D500200290A06BC000DE
:100BB00006D4A06B012109070843A063012002901D
:100BC0005E480168C90511D40168821511430160AE
:100BD000FFF73CFD009005E0FFF738FD0099401A53
:100BE000642849D855480068C005F5D5FF20AA6893
:100BF0000130824203D131690143316111E00121A9
:100C00008902002A07D005231B029A4203D13269C8
:100C10000A433261EFE732698243326130698843C7
:100C20003061A86800280ED0FFF710FD009006E0A4
:100C3000FFF70CFD0099411A414881421CD83069E8
:100C40008005F5D50DE0FFF701FD009006E0FFF708
:100C5000FDFC0099411A3A4881420DD8306980055F
:100C6000F5D40298002804D0A16B0120000781432D
:100C7000A1632878800600E07CE02ED53148A96980
:100C80004314002916D0A26801210A43A260626BB6
:100C90000A436263016A19430162FFF7D7FC064603
:100CA00004E0FFF7D3FC801B022863D8A06880070C
:100CB000F7D512E0A16849084900A160016A99438B
:100CC0000162FFF7C3FC064604E0FFF7BFFC801B90
:100CD00002284FD8A0688007F7D4A86A002866D0F9
:100CE0000C2F4DD0012636060228206805D0B043CF
:100CF0002060FFF7ABFC05463EE0B0432060FFF705
:100D0000A5FC074604E0FFF7A1FCC01B022831D870
:100D100020688001F7D4296BE86AE2680843696BB0
:100D2000FD231B049A43114308430DE000100240C9
:100D30000C170008400100204010024000700040E5
:100D40008813000000000140E0602068304320600C
:100D5000FFF77CFC054604E0FFF778FC401B022807
:100D600008D820688001F7D521E0FFF76FFC401B11
:100D7000022801D90320FEBD20688001F5D416E0C9
:100D80000128F8D0E06801210904EA6A0140914293
:100D90000BD10F2189042A6B0140914205D1032117
:100DA00089050840696B884201D00120FEBD002002
:100DB000FEBD0000094910B5401E884201D901203E
:100DC00010BD074C60610321081F00F075F9002079
:100DD000A06107202061002010BD0000FFFFFF0080
:100DE00000E000E0F0B502462032137E012B15D062
:100DF000012717760223537605686C68AB68702666
:100E0000B4430E68496826438024A34319436E60A7
:100E100000688160577600201076F0BD0220F0BD9A
:100E200070B5040005D025462035687E002802D024
:100E300006E0012070BD00202876204600F00AF868
:100E400002206876211D206800F0C8F9012068762C
:100E5000002070BD10B50068084988420CD10848D0
:100E6000816B102211438163002211461120FFF78C
:100E700057FC1120FFF74AFC10BD00000010004095
:100E8000001002400268D36801210B43D360006860
:100E900082685207520F062A02D002680A43026093
:100EA00000207047704770B504460068016900254E
:100EB000C9438907002915DBC168C943890711D4D3
:100EC000E91E0161012020762068806980072046A4
:100ED00002D0FFF7E7FF04E000F078F8204600F0CA
:100EE00076F8257620680169C943490717D4C16897
:100EF000C943490713D40421C94301610220207664
:100F0000206880698005800F204602D0FFF7CAFF65
:100F100004E000F05BF8204600F059F825762068E0
:100F20000169C943090716D4C168C943090712D426
:100F30000821C9430161042020762068C069800728
:100F4000204602D0FFF7AEFF04E000F03FF8204655
:100F500000F03DF8257620680169C943C90617D419
:100F6000C168C943C90613D41021C94301610820CF
:100F700020762068C0698005800F204602D0FFF7E8
:100F800091FF04E000F022F8204600F020F82576DA
:100F900020680169C943C90708D1C168C943C907A5
:100FA00004D1891E0161204600F012F82068016911
:100FB000C943490609D4C168C943490605D440213B
:100FC000C9430161204600F00DF870BD70477047BD
:100FD00010B500680249884201D100F02BFA10BD1B
:100FE000001000407047FEE7F0B587B01421684656
:100FF000FFF79BF82B48C26A04210A43C262C26A07
:101000000A400592C16A01252943C162C16A29408B
:101010000591C16A02263143C162C06A0022304094
:1010200005907C212048FFF70AFBFF27F8370022B4
:1010300039461E48FFF703FB1D480024019069460E
:10104000009502941848FFF739FA0194694616484A
:1010500000960294FFF732FA7C20009002946946D1
:10106000019503941048FFF729FA0F20C001009062
:1010700005200194694602940007FFF71FFA0294C5
:1010800069460A48009701950394FFF717FA002272
:1010900011460520FFF744FB0520FFF737FB07B09B
:1010A000F0BD000000100240000800500004005095
:1010B00000001110704700008307FF22DB0E9A40EA
:1010C0008907090E994000280BDA0007000F08383D
:1010D000830808489B001818C36993430B43C361F6
:1010E0007047830804489B001B1818689043084306
:1010F0001860704700ED00E000E400E010B5FFF775
:1011000015FB10BD70477047704710B5FFF7A4FA84
:1011100010BD000010B594B038216846FFF705F8FF
:1011200014210EA8FFF701F8124801680322D20229
:101130009143C214891801600220009001210A9095
:10114000039140040C900001102100240D900B9499
:1011500004916846FFF7EAFB0F200E9003200F90E2
:1011600010941194012112940EA8FFF7EDFA14B017
:1011700010BD000000700040104801688215114346
:101180000160C1680E4A1140C16001680D4A1140FA
:101190000160816849084900816001680122920468
:1011A00091430160C168FD2212049143C160002196
:1011B00001610549C00388607047000000100240CB
:1011C0000C40FF88F6FFF6FE00ED00E010B5024887
:1011D000FFF769FE10BD00004401002070B50268F1
:1011E00001239B07114C124D984203D0A04201D01D
:1011F000A84203D17026B2434E683243984203D0CE
:10120000A04201D0A84204D103231B029A43CB6819
:101210001A4380239A430B691A4302608A68C262A8
:10122000096881620121416170BD00000008014030
:10123000001401400FB410B504A9074B02AA03988B
:1012400000F01CF8044602A9002000F0BFF8204678
:1012500010BC08BC04B01847CD13000802E008C851
:10126000121F08C1002AFAD170477047002001E020
:1012700001C1121F002AFBD170470000FFB58DB0DD
:101280000446002506E025280AD0109A0F999047B9
:10129000641C6D1C20780028F5D1284611B0F0BDE3
:1012A00000270121484A009700E00743641C237887
:1012B0000846203B98401042F7D120782E2817D1BD
:1012C000042007436078641C2A280CD10E98641C03
:1012D00002C800910E900BE000990A225143303968
:1012E0004018641C00902078014630390929F3D950
:1012F00020780028D1D0642808D0692806D0752825
:101300001ED0109A0F9990476D1C5BE00A200E9931
:10131000019001C90E91002802DA40422D2102E01D
:10132000390504D52B216A461172012103E0F90722
:1013300004D02021F7E70BAE0B910DE00021FAE776
:101340000A200E99019001C90E91F7E70199FEF765
:10135000CFFE3031761E31700028F7D103A8801BF4
:1013600020300190780701D5009801E0012000901D
:101370000199884201DD401A00E00020002700901A
:1013800006E002A8109AC05D0F9990476D1C7F1C63
:101390000B988742F5DB04E0109A30200F999047B4
:1013A0006D1C0099481E00900029F5DC05E030789E
:1013B000109A761C0F9990476D1C0199481E019058
:1013C0000029F4DC641C65E7092801000A68531C45
:1013D0000B6010707047000070B5134E0546002476
:1013E0002846E040C00701D0002200E00122102181
:1013F0003046FFF724F9012220213046FFF71FF97C
:10140000002220213046FFF71AF9641CE4B2082CB0
:10141000E6D3012240213046FFF711F90022402196
:101420003046FFF70CF970BD000800504001401E27
:10143000FDD2704770B5114D012204212846FFF7F7
:10144000FEF8002204212846FFF7F9F80C4E00248C
:10145000012208212846FFF7F2F800220821284639
:10146000FFF7EDF8305DFFF7B7FF0020FFF7B4FF9F
:10147000641CE4B2082CEBD370BD000000080050DF
:1014800000000020044A0021435C5354491CC9B2A7
:101490000829F9D37047000000000020FF2110B593
:1014A0000131054B012804D000221846FFF7C7F888
:1014B00010BD0122F9E700000004005010B5012121
:1014C000002000F03BF80220FEF758FF10BD10B5D9
:1014D0000146012000F032F810BD89010818803063
:1014E00010B5C1B2002000F029F810BD10B53321AD
:1014F000002000F023F83221002000F01FF82821FE
:10150000002000F01BF80C21002000F017F8062145
:10151000002000F013F80121002000F00FF8022055
:10152000FEF72CFF10BD10B5044602E0FFF7CFFF19
:10153000641C20780028F9D110BD000070B5194D49
:101540000C46002801D0012200E00022012128469B
:10155000FFF775F8002202212846FFF770F82046B1
:1015600000F022F8012204212846FFF768F86420E1
:10157000FFF75CFF002204212846FFF760F82007F0
:10158000000E00F011F8012204212846FFF757F859
:101590006420FFF74BFF002204212846FFF74FF895
:1015A00070BD00000004005070B50446124DC00626
:1015B00001D5012200E0002210212846FFF73FF864
:1015C000A00601D5012200E0002220212846FFF7D5
:1015D00036F8600601D5012200E0002240212846AD
:1015E000FFF72DF8200601D5012200E0002280211E
:1015F0002846FFF724F870BD0004005086B0FFF7BE
:1016000033F8FFF787FDFFF7EFFC00242C48009428
:101610002A49019401601F21846041602949446185
:10162000C160FFF7FDFB0094694625480194FFF770
:10163000D9FB2348FFF726FCFFF758FF0120FFF7EF
:101640002DFF0524240780212046FEF7F3FF002804
:10165000F9D102E00A20FEF791FE80212046FEF734
:10166000E9FF0028F6D018A0FEF7B0FD00210846DB
:10167000FFF733FF16A0FFF756FF01210020FFF709
:101680002CFF18A0FFF74FFF7D204001FEF776FEEC
:10169000FFF714FF184CFF25F53500210846FFF72A
:1016A0001CFF16A168462268FFF7C4FD6846FFF7D5
:1016B0003AFF2846FEF762FEEFE700000010004008
:1016C00044010020E70300005441534B3100000067
:1016D0002020576F726C6420736B696C6C732020D0
:1016E000000000002020546861696C616E64203243
:1016F000303230200000000008000020436F756E7B
:1017000074203D20256420202020200000000000BF
:10171000000000000102030406070809030406088C
:101720000C101820300000004817000800000020AE
:10173000440100007401000814180008440100204E
:10174000540400006C1200080114280C1C22262AE4
:101750003222221C08180801180A1C1C2202040844
:1017600010203E0828120C0202221C040C14243EF5
:101770000404043E20203C101A061D1A3C302A3E68
:101780002719011A1C0C1A220429052D1E020418FF
:10179000081A3E04192419031E223C1C2220011D94
:1017A000221C38240E2C2224384819115A3E082AAB
:1017B00020204A2E4429373B223E872C083E020136
:1017C00029183F2428303028244629382D22362A4B
:1017D0002A282E22322A2A2679390D3B221C6D39DD
:1017E0005019013C2A241A1019381A1E13194A5A82
:1017F0003C584A082F49374B1414102C2A2A360E0D
:101800003C0808141C190929811B0408EBE23E124C
:0418100020000000B4
:04000005080000C12E
:00000001FF
