:020000040800F2
:1000000008040020D5000008B50A0008490A0008C5
:1000100000000000000000000000000000000000E0
:10002000000000000000000000000000FF0A0008BF
:100030000000000000000000FD0A0008010B00089D
:10004000E7000008E7000008E7000008E7000008F4
:10005000E7000008E7000008E7000008E7000008E4
:10006000E7000008E7000008E7000008E7000008D4
:10007000E7000008E700000800000000E7000008B3
:1000800000000000E7000008000000000000000081
:10009000E700000800000000E7000008E700000893
:1000A000E7000008E7000008E7000008E700000894
:1000B000E7000008E7000008E7000008E700000884
:1000C0000348854600F03CF800480047E10B000873
:1000D000080400200448804704480047FEE7FEE784
:1000E000FEE7FEE7FEE7FEE76D0B0008C100000833
:1000F00030B50B46014600202022012409E00D46C0
:10010000D5409D4205D31D469540491B2546954047
:1001100040191546521E002DF1DC30BDD2B201E06F
:100120000270401C491EFBD270470022F6E710B552
:1001300013460A4604461946FFF7F0FF204610BD55
:10014000064C0125064E05E0E36807CC2B430C3C2A
:1001500098471034B442F7D3FFF7B6FF480C0008B5
:10016000680C000870B5044600F0D6F80546601C1F
:1001700000D0641C00F0D0F8401BA042FAD370BD40
:10018000F8B500230124A2E027469F403A4070D0F2
:100190004D68022D01D0122D14D1DD08AD002D18AF
:1001A00000952D6A5E07AC46F50E0F26AE46AE40B2
:1001B0006546B543AC460E697546AE4065462E436E
:1001C000009D2E624D68012D05D0022D03D0112D0A
:1001D00001D0122D16D185680326AC465D00AE46CF
:1001E000AE406546B543AC46CE687546AE40654602
:1001F0002E43866046680D79BE43ED06ED0F9D40A7
:100200003543456006685F000325BD40AE46AE43FA
:100210000D79B446AE07B60FBE4065462E43066064
:10022000C6687546AE438D68BD403543C5604D68B0
:10023000ED004BD5294D6E6B26436E639E08284D0D
:10024000B6007519AC46AD689E07360F0F27B7404C
:10025000BD4305273F07B84201D1002715E0214FD4
:10026000B84201D1012710E01F4FB84202D1022746
:100270000BE02BE01D4FB84201D1032705E01C4FD6
:10028000B84201D1052700E00627B7402F43654655
:10029000AF60184D2E684F689643FF0300D5164394
:1002A0002E606E684F689643BF0300D516436E609C
:1002B000AE684F689643FF0200D51643AE60EE6805
:1002C0004F689643BF0200D51643EE605B1C0A6878
:1002D0001546DD4000D057E7F8BD00000010024091
:1002E000000001400004005000080050000C0050C5
:1002F000001C0050000401400069084000D00120AB
:10030000704742694A4042617047002A01D08161CA
:100310007047816270470000014800687047000024
:100320000000002002480168491C0160704700007D
:100330000000002010B50848002401684022114345
:100340000160204600F00AF8002801D0012401E0F5
:1003500000F01CF8204610BD0020024070B5054694
:1003600009487D210024C9000068FFF7C1FE00F0A4
:1003700053FB002801D0012404E000222946501E2E
:1003800000F010F8204670BD040000200448416BC6
:10039000012211434163816B020411438163704761
:1003A0000010024010B500F087FB10BDF8B50E46F6
:1003B00005007DD053480068C007C00FB0420AD284
:1003C0005048016849084900314301600068C0078E
:1003D000C00FB04271D128784B4C800705D5E0683A
:1003E000F0218843A9680843E0602878C00752D00C
:1003F0006868022817D0032818D02168012818D06F
:100400008905002959DAE168890889000143E1601A
:10041000FFF782FF69680746022912D003291CD022
:10042000012926D033E021688903EAE721688901A0
:10043000E7E74907E5E7FFF76FFFC11B3348814254
:1004400023D8E0680007800F0228F4D123E0FFF7EB
:1004500063FFC11B2D48814217D8E0680007800F59
:100460000328F4D117E0FFF757FFC11B274881424B
:100470000BD8E0680007800F0128F4D10BE0FFF7EC
:100480004BFFC11B2148814201D90320F8BDE06820
:100490000007800FF3D11B480168C907C90FB1429B
:1004A0000DD901684908490031430160006800E046
:1004B00003E0C007C00FB04201D00120F8BD28788A
:1004C000400706D5E068072109028843E968084328
:1004D000E0602878000707D5E0680721C902884353
:1004E0002969C9000843E06000F016F8E168084A8D
:1004F0000906090F515CC840064908600020FFF753
:100500002DFFF8BD002002400010024088130000BB
:100510002C0C00080400002010B5184AD1680C20EB
:10052000084004280BD0082810D00C2810D05068A0
:100530000004410F0120C003491C884010BD106811
:10054000C00601D50E4810BD0E4810BD0E4810BDA6
:1005500088020E4B000F185C0902D368890F491CF2
:10056000DB0301D5084A05E01268D20601D5044A2A
:1005700000E0044A5043FFF7BBFD10BD00100240ED
:1005800000093D000024F40000127A003C0C000831
:10059000FEB505007ED0FE4CE7680C20E6680740FB
:1005A0000120000406402878C00747D0082F05D056
:1005B0000C2F0AD101200004864206D12068800356
:1005C0003CD568680028E5D038E00120696800045F
:1005D000814203D121680143216011E005230122FA
:1005E0001B0492049942216802D111432160F1E772
:1005F0008143216021680140009120689043206080
:10060000686800280DD0FFF787FE009005E0FFF72F
:1006100083FE0099401A64287AD820688003F6D5B2
:100620000CE0FFF779FE009005E0FFF775FE0099FA
:10063000401A6428F0D820688003F6D42878800710
:1006400055D50923E868042F0DD00C2F01D1002EB9
:1006500009D000283BD02168994301432160FFF76E
:100660005BFE064627E02168490701D5002891D0A6
:1006700061681F22120291432A69120211436160CC
:100680002168994301432160FFF746FFE1680906AD
:100690000A0F00E0BBE1BF49895CC840BE49086061
:1006A0000020FFF75BFE002872D120E0FFF734FE48
:1006B000801B0228B0D820684007F7D560681F214A
:1006C0000902884329690902084360600FE0206835
:1006D000400840002060FFF71FFE064604E0FFF7D9
:1006E0001BFE801B022897D820684007F7D4287883
:1006F000C0065FD5002F0CD0E869002849D02068DB
:10070000FF21013108432060FFF706FE06462DE079
:10071000E4E02068800502D5E8690028A7D0606879
:10072000072149038843696A084360606068298C2F
:100730000002000A090608436060686A410B012054
:10074000C003491C8840E16809060A0F9149895C89
:10075000C840914908600020FFF700FE002817D12B
:1007600028E0FFF7D9FD801B0228A3D82068800568
:10077000F7D56068072149038843696A08436060C8
:100780006068298C0002000A09060843606011E0D5
:1007900023E12168FF20013081432160FFF7BCFD88
:1007A000064604E0FFF7B8FD801B02289BD82068AE
:1007B0008005F7D42878794E000724D56869002889
:1007C000306910D0012108433061FFF7A5FD00908A
:1007D00005E0FFF7A1FD0099401A02287ED8306994
:1007E0008007F6D50FE0400840003061FFF794FD28
:1007F000009005E0FFF790FD0099401A02286DD89F
:1008000030698007F6D42878400764D5002002902C
:10081000A06BC00006D4A06B012109070843A063A8
:10082000012002905E480168C90511D40168821553
:1008300011430160FFF770FD009005E0FFF76CFDCC
:100840000099401A642849D855480068C005F5D574
:10085000FF20AA680130824203D13169014331612E
:1008600011E001218902002A07D005231B029A42C8
:1008700003D132690A433261EFE732698243326160
:10088000306988433061A86800280ED0FFF744FD26
:10089000009006E0FFF740FD0099411A414881426F
:1008A0001CD830698005F5D50DE0FFF735FD0090C7
:1008B00006E0FFF731FD0099411A3A4881420DD810
:1008C00030698005F5D40298002804D0A16B01207E
:1008D00000078143A1632878800600E07CE02ED5E4
:1008E0003148A9694314002916D0A26801210A439E
:1008F000A260626B0A436263016A19430162FFF7F7
:100900000BFD064604E0FFF707FD801B022863D8B5
:10091000A0688007F7D512E0A16849084900A160E6
:10092000016A99430162FFF7F7FC064604E0FFF70E
:10093000F3FC801B02284FD8A0688007F7D4A86A70
:10094000002866D00C2F4DD00126360602282068DC
:1009500005D0B0432060FFF7DFFC05463EE0B04322
:100960002060FFF7D9FC074604E0FFF7D5FCC01B69
:10097000022831D820688001F7D4296BE86AE26840
:100980000843696BFD231B049A43114308430DE0A0
:10099000001002402C0C000804000020401002400F
:1009A000007000408813000000000140E0602068F3
:1009B00030432060FFF7B0FC054604E0FFF7ACFCD5
:1009C000401B022808D820688001F7D521E0FFF7F6
:1009D000A3FC401B022801D90320FEBD2068800132
:1009E000F5D416E00128F8D0E06801210904EA6A8C
:1009F000014091420BD10F2189042A6B01409142A1
:100A000005D1032189050840696B884201D0012086
:100A1000FEBD0020FEBD0000094910B5401E884201
:100A200001D9012010BD074C60610321081F00F0AF
:100A300043F80020A06107202061002010BD0000C5
:100A4000FFFFFF0000E000E0FEE70000F0B587B028
:100A500014216846FFF769FB1448C16A0125294340
:100A6000C162C16A29400591C26A04210A43C26277
:100A7000C06A0F4F08408E0205900022314638466A
:100A8000FFF743FC80200024009005200194694674
:100A900002940007FFF774FB0294694638460096FB
:100AA00001950394FFF76CFB07B0F0BD0010024006
:100AB00000080050704700008307FF22DB0E9A40B9
:100AC0008907090E994000280BDA0007000F083843
:100AD000830808489B001818C36993430B43C361FC
:100AE0007047830804489B001B181868904308430C
:100AF0001860704700ED00E000E400E070477047C8
:100B000010B5FFF70FFC10BD10B594B03821684642
:100B1000FFF70BFB14210EA8FFF707FB1248016833
:100B20000322D2029143C21489180160022000906E
:100B300001210A90039140040C900001102100242F
:100B40000D900B9404916846FFF722FD0F200E9044
:100B500003200F9010941194012112940EA8FFF716
:100B600025FC14B010BD0000007000401048016862
:100B7000821511430160C1680E4A1140C1600168CD
:100B80000D4A11400160816849084900816001688F
:100B90000122920491430160C168FD221204914335
:100BA000C160002101610549C003886070470000F1
:100BB000001002400C40FF88F6FFF6FE00ED00E05A
:100BC00002E008C8121F08C1002AFAD17047704716
:100BD000002001E001C1121F002AFBD17047000074
:100BE000FFF7A8FBFFF790FFFFF730FF052424076E
:100BF00001250D4E2D0380212046FFF77DFB0028A7
:100C000003D00CE00A20FFF7ADFA80212046FFF761
:100C100073FB0028F6D029463046FFF772FB0A2006
:100C2000FFF7A0FAE7E7000000080050000000000E
:100C30000000000001020304060708090304060877
:100C40000C10182030000000680C00080000002084
:100C500008000000C00B0008700C0008080000200D
:100C600000040000D00B000800000000000020007D
:04000005080000C12E
:00000001FF
