:020000040800F2
:1000000000050020D5000008CD130008F7120008F5
:1000100000000000000000000000000000000000E0
:10002000000000000000000000000000171400089D
:10003000000000000000000015140008191400085A
:10004000E7000008E7000008E7000008E7000008F4
:10005000E7000008E7000008E7000008E7000008E4
:10006000E700000881020008E7000008E700000838
:10007000E7000008E700000800000000E7000008B3
:1000800000000000D914000800000000000000007B
:10009000E700000800000000E7000008E700000893
:1000A000E7000008E7000008E7000008E700000894
:1000B000E7000008E7000008E7000008E700000884
:1000C0000348854600F03CF8004800471D1600082C
:1000D000000500200448804704480047FEE7FEE78B
:1000E000FEE7FEE7FEE7FEE785140008C100000812
:1000F00030B50B46014600202022012409E00D46C0
:10010000D5409D4205D31D469540491B2546954047
:1001100040191546521E002DF1DC30BDD2B201E06F
:100120000270401C491EFBD270470022F6E710B552
:1001300013460A4604461946FFF7F0FF204610BD55
:10014000064C0125064E05E0E36807CC2B430C3C2A
:1001500098471034B442F7D3FFF7B6FF781700087A
:100160009817000810B50146806A426D50231A4264
:100170000AD1416D01225202114341650168CA68EA
:100180001205920F05D021E0C06C426B08469047E3
:1001900010BD2022125C002A18D10A68120715D55A
:1001A0008A6853070122002B09DB4B680C24A34308
:1001B0004B60416D130299431143416506E0416D67
:1001C000202319434165816D1143816500F0D4F806
:1001D00010BD10B5806A416D402211434165816DAB
:1001E00004221143816500F0C9F810BD10B5806A82
:1001F00000F0C3F810BD000038B5044606480549B4
:100200000068FFF775FF604300E0401E0090002883
:10021000FBD138BD40420F001C000020F8B5044659
:10022000006881688907890F012902D10168C9071F
:1002300022D18168114A10261140012500290ED1D2
:100240008168294381600120FFF7D6FF00F0B0FBF1
:1002500007460CE000F0ACFBC01B0A2807D9606D14
:1002600030436065A06D2843A0650120F8BD20687B
:100270000068C043C007EDD10020F8BD1700008022
:1002800010B5024800F0F4F910BD0000B8000020DD
:1002900030B5446C1C252C400125A540046C6560DC
:1002A000046863608368102B036803D0996000685A
:1002B000C26030BD9A600068C16030BD7047000008
:1002C000F8B506460D464036317C01290DD0012196
:1002D000317401688A68520709D5416D20221143A3
:1002E0004165002030740120F8BD0220F8BD204B8C
:1002F0006A68D80547109A421E4C8A6A2B681BD040
:100300005B035B0B1A438A622968490305D5A16820
:100310000143A1600A20FFF76FFF2868800302D520
:10032000A0683843A0602868C0031DD5A0680121DB
:1003300009060843A06017E05B035B0B9A438A62DF
:100340002968490302D5A1688143A1602868800318
:1003500002D5A068B843A0602868C00304D5A1688E
:10036000012000068143A16000203074F8BD000028
:1003700001100000002701407047704770470000DF
:1003800070B5040006D0606D264600254036002872
:1003900002D006E0012070BDA5653574204600F04E
:1003A000D3F8606DC00603D421688868400705D57E
:1003B000606D1021084360653574EBE7606DFF22C6
:1003C0000132904302221043606588688207920FD1
:1003D0005B48012A02D10A68D2072BD10323626845
:1003E0009B079A4205D05B429A4202D05B009A4238
:1003F00009D10A69920092080A6121680A69636852
:100400001A430A610CE00A69920092080A61816845
:100410000F22920491438160816862681143816078
:100420002168CA6818239A43CA602168CA68A36809
:100430001A43CA6081680122520691438160816833
:10044000A28E52061143816020688168C90004D4DD
:10045000816801221207114381602068C168394A0E
:100460001140C1602069E168022825D000200143C5
:10047000204620300278037B52035B001A4311436D
:10048000226B1143A26992031143E269D203114323
:100490002268D3681943D160616A0A46FF3AC23ABA
:1004A00005D0A26A11432268D3681943D16042780B
:1004B0000121012A02D00BE00420D8E700780028AF
:1004C00023D0606D202210436065A06D0843A065B5
:1004D000E06B012820681FD00169C90703D00169BA
:1004E00049084900016120684169C908C9004161A2
:1004F00020684169A26B11434161A565606D800868
:100500008000401C6065002070BD2068C268012327
:100510001B041A43C260DBE70269FF239B009A4376
:10052000026120680269236CA66C1A43636C334332
:100530001A430261206802690A430261D3E700009E
:10054000002701401902FEFF70B586B0064614214F
:100550006846FFF7EAFD1A49306888422ED11949EA
:10056000486B4A1510434863C86A01221043C862A9
:10057000C86A0025104005901320009003200190C8
:10058000052069460295000700F050F90E480F4C0F
:1005900021C4256080206560A0604000E06080008C
:1005A00020612020A56160610848083C00F0B4F893
:1005B000002801D0FFF782FEF464A66206B070BD89
:1005C000002401400010024008000240B800002052
:1005D000F7B5044600680025806840073DD42646EC
:1005E0004036307C01280AD001273774E0690128A1
:1005F00007D02046FFF712FE050002D02EE00220B1
:10060000FEBD606D16490840FF2101310843606559
:100610000020A0653074E16C1248C862E16C124899
:100620000863E16C1148486321681C200860206859
:1006300041681022114341602068C1683943C1609C
:100640002168E06C4031029B019A00F0ADF820680F
:10065000816804221143816000E002252846FEBD26
:10066000FEF1FFFF65010008ED010008D30100085D
:10067000F0B4016C0D6801680C68466C1C23042200
:100680001E401746B7402F420ED067070CD50C68A6
:10069000A40602D40C6894430C60416C19408A4053
:1006A000016C4A60016B1AE00227B74002462F40F6
:1006B0002032002F17D0A70715D50C68A40605D443
:1006C0000C680A25AC430C6001215171446C022175
:1006D0001C40036CA140596000211171C16A0029BE
:1006E00018D0F0BC08470827B7402F4212D0240783
:1006F00010D50C680E25AC430C60446C01211C40E5
:100700000B46A340046C6360C163517100211171F9
:10071000416BE4E7F0BC704770B504003CD01F4863
:10072000256814212818FFF7E3FC800060641C484A
:100730002064022120462030024641712968194870
:10074000E3680140A068666918432369334318438E
:10075000A3691843E3691843236A184308432860D0
:100760000121A0688903884210D00D488030836A37
:10077000656C1C210D400F26AE40B3438362656C4F
:1007800063680D40816AAB400B4383620020E063E5
:1007900001215171107170BD012070BDF8FFFDBFC6
:1007A000000002400F80FFFFF8B504468C46203061
:1007B00001790025012909D0012606714179002718
:1007C000012905D0077102252846F8BD0220F8BD91
:1007D00002214171E763206801684908490001600E
:1007E00061462046FFF754FD206B00282068016811
:1007F00001D00E2205E004229143016020680168C7
:100800000A22114301602068016831430160DBE77F
:1008100070B5044600F0CCF80546601C00D0641C9E
:1008200000F0C6F8401BA042FAD370BDF8B5002313
:100830000124A2E027469F403A4070D04D68022D27
:1008400001D0122D14D1DD08AD002D1800952D6AB0
:100850005E07AC46F50E0F26AE46AE406546B54384
:10086000AC460E697546AE4065462E43009D2E622D
:100870004D68012D05D0022D03D0112D01D0122D70
:1008800016D185680326AC465D00AE46AE4065468F
:10089000B543AC46CE687546AE4065462E4386608D
:1008A00046680D79BE43ED06ED0F9D40354345602A
:1008B00006685F000325BD40AE46AE430D79B446E1
:1008C000AE07B60FBE4065462E430660C668754645
:1008D000AE438D68BD403543C5604D68ED004BD5D6
:1008E000294D6E6B26436E639E08284DB600751920
:1008F000AC46AD689E07360F0F27B740BD430527AE
:100900003F07B84201D1002715E0214FB84201D17D
:10091000012710E01F4FB84202D102270BE02BE065
:100920001D4FB84201D1032705E01C4FB84201D149
:10093000052700E00627B7402F436546AF60184DF6
:100940002E684F689643FF0300D516432E606E68ED
:100950004F689643BF0300D516436E60AE684F687C
:100960009643FF0200D51643AE60EE684F6896438B
:10097000BF0200D51643EE605B1C0A681546DD40D9
:1009800000D057E7F8BD0000001002400000014011
:100990000004005000080050000C0050001C0050E3
:1009A00000040140002A01D08161704781627047D4
:1009B00001480068704700001800002002480168E4
:1009C000491C0160704700001800002010B508485D
:1009D00000240168402211430160204600F00AF81B
:1009E000002801D0012401E000F01CF8204610BDD1
:1009F0000020024070B5054609487D210024C90049
:100A00000068FFF775FB00F05DFB002801D00124B2
:100A100004E000222946501E00F01AF8204670BD5E
:100A20001C0000200448416B012211434163816B8B
:100A3000020411438163704700100240C106C90ED1
:100A400001208840014908607047000000E100E093
:100A500010B500F0BDFC10BDF8B50E4605007DD008
:100A600053480068C007C00FB0420AD2504801681E
:100A700049084900314301600068C007C00FB04217
:100A800071D128784B4C800705D5E068F021884368
:100A9000A9680843E0602878C00752D06868022837
:100AA00017D0032818D02168012818D089050029FB
:100AB00059DAE168890889000143E160FFF778FFAE
:100AC00069680746022912D003291CD0012926D0C3
:100AD00033E021688903EAE721688901E7E74907EC
:100AE000E5E7FFF765FFC11B3348814223D8E06883
:100AF0000007800F0228F4D123E0FFF759FFC11B44
:100B00002D48814217D8E0680007800F0328F4D1F0
:100B100017E0FFF74DFFC11B274881420BD8E06863
:100B20000007800F0128F4D10BE0FFF741FFC11B44
:100B30002148814201D90320F8BDE0680007800FF9
:100B4000F3D11B480168C907C90FB1420DD901682B
:100B50004908490031430160006800E003E0C00734
:100B6000C00FB04201D00120F8BD2878400706D55B
:100B7000E068072109028843E9680843E0602878B3
:100B8000000707D5E0680721C90288432969C90021
:100B90000843E06000F016F8E168084A0906090F0A
:100BA000515CC840064908600020FFF723FFF8BDEC
:100BB0000020024000100240881300005C1700086B
:100BC0001C00002010B5184AD1680C2008400428E9
:100BD0000BD0082810D00C2810D050680004410F0A
:100BE0000120C003491C884010BD1068C00601D513
:100BF0000E4810BD0E4810BD0E4810BD88020E4BA9
:100C0000000F185C0902D368890F491CDB0301D56A
:100C1000084A05E01268D20601D5044A00E0044AF9
:100C20005043FFF765FA10BD0010024000093D0077
:100C30000024F40000127A006C170008FEB50500CD
:100C40007ED0FE4CE7680C20E668074001200004D7
:100C500006402878C00747D0082F05D00C2F0AD1AE
:100C600001200004864206D1206880033CD56868D4
:100C70000028E5D038E0012069680004814203D1F2
:100C800021680143216011E0052301221B04920425
:100C90009942216802D111432160F1E7814321602B
:100CA0002168014000912068904320606868002816
:100CB0000DD0FFF77DFE009005E0FFF779FE00996B
:100CC000401A64287AD820688003F6D50CE0FFF734
:100CD0006FFE009005E0FFF76BFE0099401A642854
:100CE000F0D820688003F6D42878800755D50923EA
:100CF000E868042F0DD00C2F01D1002E09D0002858
:100D00003BD02168994301432160FFF751FE06461D
:100D100027E02168490701D5002891D061681F228A
:100D2000120291432A6912021143616021689943BA
:100D300001432160FFF746FFE16809060A0F00E062
:100D4000BBE1BF49895CC840BE4908600020FFF78D
:100D500051FE002872D120E0FFF72AFE801B0228F6
:100D6000B0D820684007F7D560681F210902884382
:100D700029690902084360600FE0206840084000CC
:100D80002060FFF715FE064604E0FFF711FE801B0A
:100D9000022897D820684007F7D42878C0065FD586
:100DA000002F0CD0E869002849D02068FF210131CC
:100DB00008432060FFF7FCFD06462DE0E4E02068D4
:100DC000800502D5E8690028A7D06068072149039B
:100DD0008843696A084360606068298C0002000AE1
:100DE000090608436060686A410B0120C003491C82
:100DF0008840E16809060A0F9149895CC840914919
:100E000008600020FFF7F6FD002817D128E0FFF763
:100E1000CFFD801B0228A3D820688005F7D5606825
:100E2000072149038843696A084360606068298C28
:100E30000002000A09060843606011E023E121680E
:100E4000FF20013081432160FFF7B2FD064604E038
:100E5000FFF7AEFD801B02289BD820688005F7D4E1
:100E60002878794E000724D568690028306910D0A9
:100E7000012108433061FFF79BFD009005E0FFF77B
:100E800097FD0099401A02287ED830698007F6D570
:100E90000FE0400840003061FFF78AFD009005E058
:100EA000FFF786FD0099401A02286DD83069800747
:100EB000F6D42878400764D500200290A06BC000CB
:100EC00006D4A06B012109070843A063012002900A
:100ED0005E480168C90511D401688215114301609B
:100EE000FFF766FD009005E0FFF762FD0099401AEC
:100EF000642849D855480068C005F5D5FF20AA6880
:100F00000130824203D131690143316111E0012195
:100F10008902002A07D005231B029A4203D13269B5
:100F20000A433261EFE732698243326130698843B4
:100F30003061A86800280ED0FFF73AFD009006E067
:100F4000FFF736FD0099411A414881421CD83069AB
:100F50008005F5D50DE0FFF72BFD009006E0FFF7CB
:100F600027FD0099411A3A4881420DD83069800521
:100F7000F5D40298002804D0A16B0120000781431A
:100F8000A1632878800600E07CE02ED53148A9696D
:100F90004314002916D0A26801210A43A260626BA3
:100FA0000A436263016A19430162FFF701FD0646C5
:100FB00004E0FFF7FDFC801B022863D8A0688007CF
:100FC000F7D512E0A16849084900A160016A994378
:100FD0000162FFF7EDFC064604E0FFF7E9FC801B29
:100FE00002284FD8A0688007F7D4A86A002866D0E6
:100FF0000C2F4DD0012636060228206805D0B043BC
:101000002060FFF7D5FC05463EE0B0432060FFF7C7
:10101000CFFC074604E0FFF7CBFCC01B022831D809
:1010200020688001F7D4296BE86AE2680843696B9D
:10103000FD231B049A43114308430DE000100240B6
:101040005C1700081C0000204010024000700040A7
:101050008813000000000140E060206830432060F9
:10106000FFF7A6FC054604E0FFF7A2FC401B0228A0
:1010700008D820688001F7D521E0FFF799FC401BD4
:10108000022801D90320FEBD20688001F5D416E0B6
:101090000128F8D0E06801210904EA6A0140914280
:1010A0000BD10F2189042A6B0140914205D1032104
:1010B00089050840696B884201D00120FEBD0020EF
:1010C000FEBD0000094910B5401E884201D901202B
:1010D00010BD074C60610321081F00F079F9002062
:1010E000A06107202061002010BD0000FFFFFF006D
:1010F00000E000E0F0B502462032137E012B15D04F
:10110000012717760223537605686C68AB68702652
:10111000B4430E68496826438024A34319436E6094
:1011200000688160577600201076F0BD0220F0BD87
:1011300070B5040005D025462035687E002802D011
:1011400006E0012070BD00202876204600F00AF855
:1011500002206876211D206800F0C6F9012068761B
:10116000002070BD10B50068084988420CD10848BD
:10117000816B102211438163002211461120FFF779
:1011800067FC1120FFF75AFC10BD00000010004062
:10119000001002400268D36801210B43D36000684D
:1011A00082685207520F062A02D002680A43026080
:1011B00000207047704770B504460068016900253B
:1011C000C9438907002915DBC168C943890711D4C0
:1011D000E91E016101202076206880698007204691
:1011E00002D0FFF7E7FF04E000F078F8204600F0B7
:1011F00076F8257620680169C943490717D4C16884
:10120000C943490713D40421C94301610220207650
:10121000206880698005800F204602D0FFF7CAFF52
:1012200004E000F05BF8204600F059F825762068CD
:101230000169C943090716D4C168C943090712D413
:101240000821C9430161042020762068C069800715
:10125000204602D0FFF7AEFF04E000F03FF8204642
:1012600000F03DF8257620680169C943C90617D406
:10127000C168C943C90613D41021C94301610820BC
:1012800020762068C0698005800F204602D0FFF7D5
:1012900091FF04E000F022F8204600F020F82576C7
:1012A00020680169C943C90708D1C168C943C90792
:1012B00004D1891E0161204600F012F820680169FE
:1012C000C943490609D4C168C943490605D4402128
:1012D000C9430161204600F00DF870BD70477047AA
:1012E00010B500680249884201D100F063F910BDD1
:1012F000001000407047FEE71CB500211A4800911D
:10130000184A01910260C1631205426081600124A4
:101310000722046182630246C16020321470FF23F9
:101320005170C2334362816214730163816104228C
:1013300041634261C161FFF723F8200301906946D0
:1013400000940948FEF7BCFF08480090694606482B
:10135000FEF7B6FF0648009069460348FEF7B0FF67
:101360001CBD0000002401402000002002000004F9
:101370001000001030B587B014216846FEF7D5FE86
:101380001048C26A04210A43C262C26A0A40059236
:10139000C16A01242143C162C06A0B4D20400590FF
:1013A00000227C212846FFF7FDFA00217C200291D3
:1013B00003910090019469462846FFF737FA07B079
:1013C00030BD0000001002400008005070470000CF
:1013D0008307FF22DB0E9A408907090E99400028F7
:1013E0000BDA0007000F0838830808489B0018181C
:1013F000C36993430B43C3617047830804489B0050
:101400001B181868904308431860704700ED00E00F
:1014100000E400E07047704710B5FFF7CFFA10BD49
:1014200010B594B038216846FEF77FFE14210EA84F
:10143000FEF77BFE124801680322D2029143C214D8
:10144000891801600220009001210A900391400454
:101450000C900001102100240D900B94049168461B
:10146000FFF7ECFB0F200E9003200F9010941194C7
:10147000012112940EA8FFF7EFFA14B010BD00007E
:101480000070004010480168821511430160C16876
:101490000E4A1140C16001680D4A11400160816827
:1014A000490849008160016801229204914301606A
:1014B000C168FD2212049143C16000210161054908
:1014C000C003886070470000001002400C40FF8895
:1014D000F6FFF6FE00ED00E010B50248FFF76BFEE8
:1014E00010BD00007C00002070B5026801239B073E
:1014F000114C124D984203D0A04201D0A84203D112
:101500007026B2434E683243984203D0A04201D0C5
:10151000A84204D103231B029A43CB681A438023B9
:101520009A430B691A4302608A68C2620968816241
:101530000121416170BD000000080140001401401C
:1015400002E008C8121F08C1002AFAD1704770478C
:10155000002001E001C1121F002AFBD170470000EA
:1015600070B5134E054600242846E040C00701D060
:10157000002200E0012210213046FFF713FA012279
:1015800020213046FFF70EFA002220213046FFF7D7
:1015900009FA641CE4B2082CE6D30122402130464B
:1015A000FFF700FA002240213046FFF7FBF970BD3B
:1015B0000008005070B5114D012204212846FFF7A4
:1015C000F1F9002204212846FFF7ECF90C4E002423
:1015D000012208212846FFF7E5F9002208212846C4
:1015E000FFF7E0F9305DFFF7BBFF0020FFF7B8FF22
:1015F000641CE4B2082CEBD370BD0000000800505E
:101600000E000020044A0021435C5354491CC9B217
:101610000829F9D3704700000E0000201CB5FFF721
:10162000D5F9FFF7FDFEFFF7A5FE4548016B012246
:1016300011430163006B1040002200901146092005
:10164000FFF706FA0920FFF7F9F9FFF755FE002525
:101650003D4800953B49019501601021856041603E
:101660003A494561C160FFF763FD00956946364818
:101670000195FFF73FFD3448032235495C38FEF7FA
:10168000A7FF3148FFF786FD314C324E6F46083CCC
:101690002F49E1220888D200904201D225601CE047
:1016A000B04201D2012017E07D231B01984201D2F4
:1016B000022011E0274BC833984201D203200BE0EF
:1016C000254B984201D2042006E0234B6433984214
:1016D00001D2052000E0062020604888904201D217
:1016E000062019E0B04201D2052015E07D21090154
:1016F000884201D204200FE017496439884201D2A0
:10170000032009E01449884201D2022004E0124972
:101710006431884202D20120606000E0656000957B
:1017200001952178C020C8406168785479184870C4
:101730006846FFF767FF3220FFF76AF8A8E7000066
:1017400000100240001000407C000020E703000071
:10175000080000206C07000098080000000000004E
:10176000000000000102030406070809030406083C
:101770000C1018203000000098170008000000200E
:101780002000000040150008B817000820000020C5
:10179000E0040000501500080000000000000000F8
:1017A0000000000000000000000000000000000039
:0817B000000000000000200011
:04000005080000C12E
:00000001FF
